:020000040800F2
:10000000E8200020F1020008371600084715000814
:100010003516000869070008091B000800000000E9
:100020000000000000000000000000003102000895
:100030006B070008000000008D020008A9160008E8
:100040000B0300080B0300080B0300080B03000858
:100050000B0300080B0300080B0300080B03000848
:100060000B0300080B0300080B0300080B03000838
:100070000B0300080B0300080B0300080B03000828
:100080000B0300080B0300080B0300080B03000818
:100090000B0300080B0300080B0300080B03000808
:1000A0000B0300080B0300080B0300080B030008F8
:1000B0000B0300080B0300080B0300080B030008E8
:1000C0000B0300080B0300080B0300080B030008D8
:1000D0000B030008C51A00080B0300080B030008F7
:1000E0000B0300080B0300080B0300080B030008B8
:1000F0000B0300080B0300080B0300080B030008A8
:100100000B0300080B0300080B0300080B03000897
:100110000B0300080B030008791700080B03000805
:100120000B0300080B0300080B0300080B03000877
:100130000B0300080B0300080B0300080B03000867
:100140000B0300080B0300080B0300080B03000857
:100150000B0300080B0300080B0300080B03000847
:100160000B0300080B0300080B0300080B03000837
:100170000B0300080B0300080B030008000000003D
:100180000B0300080B03000800F002F800F041F830
:100190000AA090E8000C82448344AAF10107DA45E2
:1001A00001D100F036F8AFF2090EBAE80F0013F0F3
:1001B000010F18BFFB1A43F001031847C4360000B3
:1001C000E4360000103A24BF78C878C1FAD8520744
:1001D00024BF30C830C144BF04680C6070470000C1
:1001E0000023002400250026103A28BF78C1FBD840
:1001F000520728BF30C148BF0B607047632900F029
:100200001482002070471FB503F028FB1FBD10B5F6
:1002100010BD00F077FA1146FFF7F5FF01F0B0FCD2
:1002200000F095FA03B4FFF7F2FF03BC01F07DFC88
:100230002C4B19680868B0E8F04F80F30988BFF3C9
:100240006F8F4FF0000080F31188704700000000AE
:1002500008480068006880F308884FF0000080F3C9
:10026000148862B661B6BFF34F8FBFF36F8F00DFA4
:1002700000BF00BF08ED00E0DFF80C00016841F4AA
:1002800070010160704700BF88ED00E0EFF3098066
:10029000BFF36F8F134B1A681EF0100F08BF20EDCD
:1002A000108A20E9F04F106009B44FF0100080F37D
:1002B0001188BFF34F8FBFF36F8F02F0ABFC4FF08D
:1002C000000080F3118809BC19680868B0E8F04F95
:1002D0001EF0100F08BFB0EC108A80F30988BFF33E
:1002E0006F8F704750000020EFF3058070470000CB
:1002F0000948804709480047FEE7FEE7FEE7FEE7BA
:10030000FEE7FEE7FEE7FEE7FEE7FEE704480549F5
:10031000054A064B7047000069170008890100086C
:10032000E81A0020E8200020E81C0020E81C00203B
:10033000704753EA020C00F069802DE9F04B4FF052
:100340000006002B1FBFB3FA83F503FA05F424FA65
:1003500005F65E4012BF1643B2FA82F502FA05F4C2
:10036000C5F120051EBF22FA05FC44EA0C04203525
:1003700056EA044C4FEA144418BF641C4FF00008BE
:100380004FF00009904271EB030C39D3002919BFDB
:10039000B1FA81F701FA07F6B0FA80F700FA07F62A
:1003A000C7F120071EBF20FA07FC46EA0C062037DB
:1003B000B6FBF4FCA7EB0507103F07F01F0BCBF1D2
:1003C00020060CFA0BFB2CFA06F644BFB3460026B7
:1003D000202FA4BF5E464FF0000B5BEA060C08BF5F
:1003E0004FF0010B19EB0B09ABFB027C48EB060845
:1003F000C01B06FB02CC0BFB03CC71EB0C01C1E76D
:100400000B46024641464846BDE8F08B13B54FF017
:1004100000004FF00001AFF30080BDE81C407047C2
:100420000FB4044910B503AA029800F00BF910BCF0
:100430005DF814FB080000202DE9F0410E4604464B
:10044000002020622046E168884730B3252805D087
:10045000D4E901219047206A401CF2E7E168204678
:1004600000278847050018D0A5F14100192802D8B7
:1004700020354FF400673246294620462760FFF7B3
:10048000BDFE40B1012804D0F61D26F0070608364F
:10049000D8E7361DD6E72846DAE7206ABDE8F081BE
:1004A00070B50C460546012A05D02878800600D58F
:1004B000EA69002302E0012305E05B1C934202D2BB
:1004C000E05C0028F9D1A869E618C01AA861286A7A
:1004D000184428622846AFF3008004E0D5E90121E2
:1004E00014F8010B9047B442F8D32846AFF30080CC
:1004F00070BD032A40F2308010F0030C00F015802C
:1005000011F8013BBCF1020F624498BF11F801CB16
:1005100000F8013B38BF11F8013BA2F1040298BF7B
:1005200000F801CB38BF00F8013B11F0030300F0E5
:100530009B80083AC0F0088051F8043B083A51F813
:1005400004CBA0E80810F5E7121D5CBF51F8043B8E
:1005500040F8043BAFF30080D20724BF11F8013B01
:1005600011F801CB48BF11F8012B24BF00F8013B63
:1005700000F801CB48BF00F8012B70474FF0000294
:100580000429C0F0128010F0030C00F01B80CCF1A5
:10059000040CBCF1020F18BF00F8012BA8BF20F813
:1005A000022BA1EB0C0100F00DB85FEAC17C24BF67
:1005B00000F8012B00F8012B48BF00F8012B704711
:1005C0004FF0000200B5134694469646203922BFEC
:1005D000A0E80C50A0E80C50B1F12001BFF4F7AF37
:1005E000090728BFA0E80C5048BF0CC05DF804EB19
:1005F000890028BF40F8042B08BF704748BF20F887
:10060000022B11F0804F18BF00F8012B7047704784
:1006100070477047704710B5436913B1AFF300805E
:1006200001E0FFF73DFF012010BD127800F1240129
:100630000A7000224A700122EDE711684FF0FF3284
:10064000E9E70000074B70B50D467B4400F043F826
:100650000446284600F052F810B14FF0FF3070BD4C
:10066000204670BD1715000010B5203AC0F00B8071
:10067000B1E81850203AA0E81850B1E81850A0E8A6
:100680001850BFF4F5AF5FEA027C24BFB1E8185000
:10069000A0E8185044BF18C918C0BDE810405FEA70
:1006A000827C24BF51F8043B40F8043B08BF7047EC
:1006B000D20728BF31F8023B48BF11F8012B28BFF1
:1006C00020F8023B48BF00F8012B704701694A1C23
:1006D00002610878704700B58FB0CDE90131002183
:1006E000059105497944CDE9031011466846FFF7A5
:1006F000A3FE0FB000BD0000E5FFFFFF007B00F090
:1007000080007047754600F02BF8AE46050069463C
:10071000534620F00700854618B020B5FFF7F6FDD8
:10072000BDE820404FF000064FF000074FF00008F2
:100730004FF0000B21F00701AC46ACE8C009ACE873
:10074000C009ACE8C009ACE8C0098D46704710B5D7
:100750000446AFF300802046BDE81040FFF762BDBD
:1007600000487047841A0020FEE7704772B6FEE723
:10077000F0B50346002014E0D3E901546D1CB5FB2D
:10078000F4F604FB16561F68BE4201D10020F0BDEE
:10079000B5FBF4F604FB16545C60DE680D5C401C8F
:1007A00035559042E8D3F0BD002343600360C0E9B3
:1007B0000221704770B5002311E000BFD0E9004569
:1007C000A54201D1002070BD8568641CB4FBF5F61C
:1007D00005FB16440460C5682C5DCC545B1C934239
:1007E000ECD3D8B270BD00002DE9F84FDFF8BCA102
:1007F0000022012503264FF00F090AF1040BAAF18C
:10080000040E00BF0B6805FA02F42340A34270D126
:100810000F7907F00307012F01D0022F16D1876847
:100820004FEA420806FA08FC27EA0C07D1F80CC088
:100830000CFA08FC4CEA070CC0F808C04768A7434C
:100840000C79C4F3001494403C4344600C79E443B5
:10085000A4070AD0C4684FEA420C06FA0CF7BC435E
:100860008F6807FA0CF72743C7600C7904F003047C
:10087000022C12D1D40800EB840CDCF8204057077E
:10088000FF0E09FA07F824EA0804D1F8108008FAE4
:1008900007F848EA0408CCF8208004684FEA420CC4
:1008A00006FA0CF7BC430F7907F0030707FA0CF7B9
:1008B000274307604C6814F4403F70D03C4C2768D5
:1008C00047F480472760246822F0030704F480443B
:1008D0000094384C07EB040CDCF8084897074FEA03
:1008E000177809FA08F7BC43334FB84202D1002702
:1008F00024E054E0314FB84201D101271EE0304FCF
:10090000B84201D1022719E02E4FB84201D1032786
:1009100014E02D4FB84201D104270FE02B4FB8420D
:1009200001D105270AE02A4FB84201D1062705E088
:10093000284FB84201D1072700E0082707FA08F737
:100940002743CCF80878DAF800405746D1F804C0BD
:100950009C435FEACC2C00D51C433C60DBF8004094
:100960005F46D1F804C09C435FEA8C2C00D51C4341
:100970003C60DEF800407746D1F804C09C435FEA53
:100980008C3C00D51C433C60084F083F3C68D1F8C4
:1009900004C09C435FEACC3C00D51C433C60521C25
:1009A000102AFFF42FAFBDE8F88F0000083C01408B
:1009B0004438024000300140000002400004024080
:1009C00000080240000C02400010024000140240E7
:1009D00000180240001C02400AB1816170470904FE
:1009E000FBE7000001488068704700000C00002011
:1009F0000248816802781144816070470C00002031
:100A00000B4810B5016841F400710160016841F4C0
:100A100080610160016841F480710160032000F091
:100A20009BF80F2000F006F800F050F8002010BDF1
:100A3000003C024030B505461F4887B000240168DD
:100A400041F010010160006806A900F0100000905C
:100A500001A800F02DF90498A8B100F049F9400070
:100A60001649174AB0FBF1F11648491E026040F2E0
:100A7000E732C0E90324C0E90114846100F040FBBF
:100A8000040003D015E000F033F9E9E70D4800F069
:100A900065FB04000DD1362000F030F8102D07D290
:100AA00000222946362000F037F80748056000E0AC
:100AB000012407B0204630BD4038024040420F00BC
:100AC00000100040C4010020100000200A4808B5B2
:100AD000016841F480410160006800F480400090AA
:100AE0000548001F016841F080510160006800F076
:100AF0008050009008BD000044380240002809DB07
:100B000000F01F02012191404009800000F1E02027
:100B1000C0F8001170470000F0B40E4B1B680C4683
:100B2000C3F30223C3F10705042D00D90425191DC1
:100B3000072901D2002300E0DB1E012606FA05F199
:100B4000491E214099409E40761E16403143F0BC1C
:100B500000F0DBBF0CED00E0064900F0070208687A
:100B60004FF6FF03184040EA0220034A1043086092
:100B7000704700000CED00E00000FA052DE9F04799
:100B80000E46050065D0DFF81481D8F80000F7B2F2
:100B900000F00700B04207D288F80070D8F80000D3
:100BA00000F00700B04254D128683D4C810712D5AF
:100BB000400703D5206840F4E05020602878000703
:100BC00003D5206840F4604020602068A96820F0C8
:100BD000F000084320602878C0072DD030496868AD
:100BE0000839012812D0022813D0032811D009682F
:100BF000890700292DDA216821F0030101432160D2
:100C0000FFF7F0FE814641F2883A0EE00968890359
:100C1000EFE709688901ECE7FFF7E4FEA0EB0901C3
:100C2000514502D90320BDE8F0872068696800F0CB
:100C30000C00B0EB810FEFD1D8F80010404601F066
:100C40000701B14207D90770006800F00700B04201
:100C500001D00120E7E72878400705D52068E9683A
:100C600020F4E050084320602878000706D520686B
:100C7000296920F4604040EAC100206000F058F883
:100C80002168084AC1F30311515CC8400649086055
:100C900006480068FFF7CEFE0020C4E7003C024093
:100CA00008380240663800081800002010000020B4
:100CB0000F2202600C4A136803F0030343601368B9
:100CC00003F0F0038360136803F4E053C360126819
:100CD0004FF4E05303EAD20202610448006800F0D6
:100CE000070008607047000008380240003C0240DE
:100CF0000448054900680968044AC1F38221515C2F
:100D0000C8407047180000200838024076380008B4
:100D10000448054900680968044AC1F34231515C3E
:100D2000C840704718000020083802407638000894
:100D3000154810B5006810F00C02144813D041108B
:100D4000042A0FD0082A0ED10F4C241F22682368D2
:100D500002F03F025B0207D52068C0F38810A0FBB9
:100D6000010106E0084610BD2168C1F38811A1FB0E
:100D700000010023FFF7DDFA2168C1F30141491C9E
:100D80004900B0FBF1F010BD083802400024F40027
:100D90002DE9F84F04006ED02078DFF84C93C0079F
:100DA000A9F104054AD009F104000168C1F38101E9
:100DB000012908D00068C0F3810002280AD1D9F8BF
:100DC0000000400206D52868800337D560680028F7
:100DD000E1D033E06068B0F5803F10D0B0F5A02FCF
:100DE000286810D020F480302860286820F4802003
:100DF00028606068A8B1FFF7F5FD06460DE0286899
:100E000040F48030F4E740F480202860F7E700BF2A
:100E1000FFF7E8FD801B642873D828688003F7D5A6
:100E20000CE0FFF7DFFD064605E000BFFFF7DAFD47
:100E3000801B6428F0D828688003F7D42078DFF876
:100E4000AC8280074FF0000A3ED5A748001D01681C
:100E500011F00C0F08D00068C0F3810002280BD1FC
:100E6000D9F80000400207D42868800716D5E0684A
:100E7000012800D112E033E1E068B8B10120C8F8E0
:100E80000000FFF7AFFD064605E000BFFFF7AAFD33
:100E9000801B0228C0D828688007F7D528682169F8
:100EA00020F0F80040EAC10028600DE0C8F800A07A
:100EB000FFF798FD064604E0FFF794FD801B02282B
:100EC0001FD828688007F7D42078000722D5864FDE
:100ED00087486169703771B101210160FFF782FDB8
:100EE000064604E0FFF77EFD801B022809D838681B
:100EF0008007F7D50EE0C0F800A0FFF773FD0646A7
:100F000005E082E0FFF76EFD801B02287DD838687F
:100F10008007F7D42078400768D5DFF8CCB10027E8
:100F20000BF13C0BDBF80000C0000BD4DBF8001029
:100F300041F08051CBF80010DBF80000012700F0F1
:100F4000805000906B4E3068C00510D4306840F47B
:100F500080703060FFF746FD009005E0FFF742FD2E
:100F60000099401A022850D83068C005F6D55E4E68
:100F7000A0686C3601280FD00528306810D020F00A
:100F800001003060306820F004003060A068B8B123
:100F9000FFF728FD00900FE0306840F00100F4E713
:100FA00040F004003060F7E7FFF71CFD0099411A9C
:100FB00041F28830814266D830688007F4D50EE06F
:100FC000FFF710FD009007E0FFF70CFD0099411AB4
:100FD00041F28830814256D830688007F4D42FB16E
:100FE000DBF8001021F08051CBF80010A069C8B3E5
:100FF0003D49091D0968C1F3810102294AD002282F
:10100000504607D0C8F8600000E03CE0FFF7EAFC7B
:1010100004463BE04746C8F86000FFF7E3FC06469D
:1010200005E000BFFFF7DEFC801B02282BD82868F4
:101030008001F7D4D4E907010843A16A2E4A490880
:1010400002EB0141626A41EA8211084394F82C10D4
:1010500040EA0161C9F8001001203866FFF7C2FCC0
:10106000044606E03EE000BFFFF7BCFC001B022880
:1010700009D828688001F7D534E000BFFFF7B2FC3B
:10108000001B022802D90320BDE8F88F28688001E0
:10109000F4D427E00128F7D0D9F80000E26900F481
:1010A000800191421CD1226A00F03F01914217D188
:1010B00047F6C071626A0140B1EB821F10D1A26A8B
:1010C0004FF0FF3300F4403103EB5202B1EB024F1B
:1010D00006D194F82C1000F07060B0EB016F01D0D5
:1010E0000120D1E70020CFE704380240000047424A
:1010F000800E4742007000400000FFFF70477047BD
:1011000010B5040003D094F83D0010B107E00120B1
:1011100010BD002084F83C00204600F01EF802209C
:1011200084F83D00211D206800F02CFB012084F88C
:10113000460084F83E0084F83F0084F8400084F8BC
:10114000410084F8420084F8430084F8440084F8A5
:10115000450084F83D00002010BD704790F83D1018
:10116000012901D001207047022180F83D1001685B
:10117000CA6842F00102CA6000681149884214D06E
:10118000B0F1804F11D00F4988420ED00E498842ED
:101190000BD00E49884208D00D49884205D00D4930
:1011A000884202D00C49884204D1816801F00701CD
:1011B000062903D0016841F0010101600020704759
:1011C000000001400004004000080040000C004006
:1011D00000040140004001400018004070472DE924
:1011E000F04104460068C66805694FF00007A9078A
:1011F00013D5B10711D5F91E0161012020772068B0
:1012000080698007204602D0FFF7E8FF04E000F085
:101210007EF8204600F07CF82777680716D570071F
:1012200014D521686FF0040008610220207720683F
:10123000806910F4407F204602D0FFF7CFFF04E022
:1012400000F065F8204600F063F82777280715D5E9
:10125000300713D521686FF008000861042020775B
:101260002068C0698007204602D0FFF7B7FF04E07E
:1012700000F04DF8204600F04BF82777E80616D529
:10128000F00614D521686FF010000861082020775F
:101290002068C06910F4407F204602D0FFF79EFF0F
:1012A00004E000F034F8204600F032F82777E80731
:1012B00008D0F00706D021686FF0010008612046D1
:1012C00000F028F8280608D5300606D521686FF00A
:1012D000800008612046FFF711FF680608D57006F8
:1012E00006D521686FF040000861204600F01CF828
:1012F000A8060AD5B00608D521686FF0200008615D
:101300002046BDE8F041FFF7FABEBDE8F081704726
:101310007047000000680349884201D1FFF768BBAD
:1013200070470000001000407047704770477047DA
:101330007047704770B5040004D094F84100002550
:1013400010B10DE0012070BD84F84050204600F03F
:10135000D3FA206F08B91448206701462046884711
:10136000242084F841002068C16821F40051C16044
:10137000204600F0E7FA2068016921F490410161FC
:101380002068416921F02A0141612068C16841F467
:101390000051C1606564202084F8410084F8420057
:1013A0006563002070BD0000AD13000810B586B065
:1013B000044614216846FFF703F91849206888425B
:1013C00029D117480021026842F01002026000682B
:1013D00000F01000059012481438026842F0010233
:1013E0000260006800F0010005904FF4C0600090BA
:1013F0000220CDE9010103200390072004906946F3
:101400000848FFF7F1F9002203212520FFF784FBAC
:101410002520FFF773FB06B010BD0000001001404F
:10142000443802400000024010B500233AB190F861
:101430004140202C09D090F841400CB324E0416C8D
:1014400041F020014164012010BD0D291CD2DFE8CC
:1014500001F007090B0D0F1113151B1B1B22240094
:10146000826416E0C26414E0026512E0426510E096
:1014700082650EE0C2650CE002660AE0426608E0A2
:101480000B2908D00C2908D0416C41F0200141649F
:101490000123184610BD0267FBE74267F9E7704772
:1014A00070472DE9F843044690F8410098461646E7
:1014B0000D46202802D00220BDE8F88385B17EB118
:1014C00000206064212084F84100FFF78BFAA68495
:1014D0008146E684A0682027B0F5805F02D003E053
:1014E0000120E9E7206910B12E4600250EE0002614
:1014F0000CE08021204600F0ABFAA8B9C6B116F87E
:10150000010B21684860E08C401EE084E08C4B4673
:101510004FF00002CDF800800028EAD14FF04001E2
:10152000204600F095FA40B184F841700320C3E7EB
:1015300035F8020BC0F30800E3E784F8417000209F
:10154000BAE770477047FEE7F0B587B014216846E8
:10155000FFF736F825480024016841F010010160CA
:10156000016801F010010591016841F0040101607A
:10157000016801F004010591016841F0200101605A
:10158000016801F020010591016841F080010160CE
:10159000016801F080010591016841F001010160DD
:1015A0000068134F00F001004FF4C0660590002260
:1015B00031463846FFF710FA1C2001258DE831002E
:1015C00069460C48FFF710F90096CDE901546946C9
:1015D00038460394FFF708F902200095CDE9014051
:1015E00069460548FFF700F907B0F0BD3038024002
:1015F0000014024000100240000002400C4810B5E8
:101600000A4901604FF4E1314160002181600C2200
:10161000C160C0E904128161C161FFF78BFE00283F
:1016200003D0BDE81040FFF7A1B810BD0010014085
:101630004C010020FEE7FEE71CB514496422A1F12D
:101640001000FFF7B1F803220021012001F096FB02
:101650000F494860002101F037FD0E4A03210E4872
:10166000FFF7E2FE0C480068C16841F02001C1604C
:1016700000210420CDE900010B46802207A1094882
:1016800001F014FEBDE81C4001F05EBAB400002079
:10169000000000205D1800084C0100207461736B8D
:1016A00062000000A529000810B5102080F3118801
:1016B000BFF34F8FBFF36F8F01F04EFE18B1044997
:1016C0004FF080500860002080F3118810BD0000AA
:1016D00004ED00E030B593B030216846FEF770FFAE
:1016E00014210CA8FEF76CFF1D480025016841F08D
:1016F00080510160006800F0805011901948016825
:1017000041F4804101600068022400F4804011909F
:1017100001200090000401908001CDE9064008AA54
:101720000420A82182E813000B906846FFF730FBE5
:1017300008B172B6FEE70CA90F2081E831004FF422
:10174000A0500F904FF48050109005210CA8FFF787
:1017500015FA002801D072B6FEE713B030BD0000C4
:1017600040380240007000400248016841F47001B6
:101770000160704788ED00E00148FFF730BD0000D0
:10178000C4010020F0B50268294C2A4D2A4E2B4F87
:101790002B4B4FF0804CA04209D0604507D0A842A7
:1017A00005D0B04203D0B84201D0984204D122F013
:1017B000700E4A6842EA0E02A0421BD0604519D062
:1017C000A84217D0B04215D0B84213D0984211D0D9
:1017D0001C4DA8420ED01C4DA8420BD01B4DA84258
:1017E00008D01B4DA84205D01A4DA84202D01A4D70
:1017F000A84203D122F44075CA682A434D6922F0F9
:1018000080022A4302608A68C2620A688262A04239
:1018100001D0984201D10969016301214161016947
:10182000C90703D0016921F001010161F0BD000089
:10183000000001400004004000080040000C00408F
:1018400000040140004001400044014000480140C4
:1018500000180040001C00400020004008B501684E
:1018600001220E48091DFEF783FF0D4A1188084426
:1018700080B21080322810D3002010806946506852
:1018800001F022FB0098002807D006494FF0805055
:101890000860BFF34F8FBFF36F8F08BDA400002017
:1018A0000000002004ED00E001680C3151E8002F39
:1018B00022F4907241E80023002BF5D10168143125
:1018C00051E8002F22F0010241E80023002BF5D15E
:1018D000016B012909D101680C3151E8002F22F078
:1018E000100241E80023002BF5D1202180F842109E
:1018F0000021016370470000094981640949C164FE
:101900000949016509494165094981650949C16577
:1019100009490166094941660949C16670470000E5
:101920004515000843150008A11400089F1400087D
:10193000331300082D130008311300082F1300087B
:101940002B13000870B5044600680169E26821F4B1
:101950004051114301612169A068E269084361694E
:10196000114308432168CA6849F20C639A43024351
:10197000CA6020684169A26921F440711143416144
:1019800031492068884202D03049884202D1FFF7AD
:10199000BFF901E0FFF7ACF9E269002319216425E2
:1019A0003226B2F5004F626828D0A0FB0101930FE8
:1019B0009200FEF7BEFC0146B0FBF5F06FF0180296
:1019C000504301EB800006EB0010B0FBF5F000F097
:1019D000F002B1FBF5F002EB0012B1FBF5F06FF095
:1019E0001803584301EB800006EB0010B0FBF5F044
:1019F00000F00F0021681044886070BDA0FB010159
:101A000092185B41FEF795FC0146B0FBF5F0020130
:101A1000B1FBF5F06FF01803584301EB800006EBC3
:101A2000C000B0FBF5F000F0F80002EB4002B1FBA3
:101A3000F5F0584301EB800006EBC000B0FBF5F079
:101A400000F00700D6E7000000100140001401403C
:101A50002DE9F843984617460D460446089E24E0B3
:101A6000701C22D0FEF7BEFFA0EB0800B0421AD8CF
:101A7000CEB12068C168490717D5802D15D0402DFB
:101A800013D00168C94309070FD4016800254068D5
:101A900000902046FFF708FF0820606484F840505B
:101AA0000120BDE8F8830320FBE72068006835EAE1
:101AB000000004D00020B842D2D00020F1E701207D
:101AC000F9E7000038B50F4C20680068800606D59D
:101AD000616D2046884721686FF02000086020680B
:101AE0000168090703D541680168416800910068F1
:101AF000400606D5E16C0348884721686FF0400036
:101B0000086038BD4C010020FEE70907090E0028D7
:101B100004DB00F1E02080F80014704700F00F00B3
:101B200000F1E02080F8141D704770470B49012038
:101B3000096809B100207047094909680029F9D1ED
:101B400007491C398A69002AF4D1044A8968283275
:101B50001268491E8A42EED1022070475C190020AB
:101B60006C00002038B504468DF800000A230122DD
:101B700069460248FFF795FC204638BD4C0100201D
:101B8000FEF73EFFFFF7A6FDFFF7DEFCFFF736FD91
:101B9000FFF752FDFEE700002DE9F0471C4C0F4611
:101BA0000546E668D4F83490D4F838802068001DE3
:101BB00000F056FD681C15D1A7B116492268486887
:101BC000906023688268DA6022688368121D5A6018
:101BD0002268121D8260206841610868401C08600C
:101BE000BDE8F08720683544B5424560216805D2DC
:101BF0004046BDE8F047091D00F06CBD4846091D90
:101C000000F068FDA06A8542EAD2A562E8E700001C
:101C100050000020841900202DE9F041054600F015
:101C200071FD344CA068401CA0602068324F10B198
:101C3000606930B32BE02560A068012827D1002619
:101C400006EB860007EB800000F036FD761C202EA8
:101C5000F6D32A4800F030FD2848143000F02CFD5F
:101C60002648283000F028FD24483C3000F024FDB0
:101C70002248503000F020FD204860631430A063FB
:101C800005E02068E96AC06A884200D82560606A79
:101C9000401C6062E86A2169884200D9206100EB3B
:101CA000800007EB80004068A8608168E960826876
:101CB000291D51608160E86A00EB800007EB80011C
:101CC000696157F82010491C47F8201000F03AFDD0
:101CD000606900280CD02068E96AC06A884207D28F
:101CE00007494FF080500860BFF34F8FBFF36F8FED
:101CF000BDE8F08150000020B41600203419002007
:101D000004ED00E038B500F0FDFC0E4C2068A8B9E9
:101D10000D4800F0D1FC0C48143000F0CDFC0A480E
:101D2000E06014302061084B0020C43B009003F1B8
:101D30004C020C210A2001F04BF82060BDE838402D
:101D400000F000BD900000205C1A002070B50C4C23
:101D50000C4E11E000F0D6FCF068C568281D00F0BC
:101D60007FFCA068401EA0606068401E606000F0BC
:101D7000E9FC284600F0B5F860680028EAD170BD9B
:101D8000500000207019002030B4026C0B46002A6D
:101D90000BD0C1681144C1608468A14201D30168BD
:101DA000C16030BC1846FEF7A4BB30BC70472DE9BB
:101DB000F041856B174604460026026C82B1C7B11C
:101DC000E068FEF796FBE168206C091AE160226882
:101DD000914202D2A168081AE060022F16D017E0E3
:101DE0002068A8B9A06801F053FB06460020A06057
:101DF0000EE06068FEF77DFB216C6068084460605F
:101E0000A168884204D32068606001E005B16D1EBE
:101E10006D1CA5633046BDE8F081000030B58BB085
:101E2000002005A910A2125C0A5412B1401C10280F
:101E3000F8DB00240E4D039409AA04A903A8049416
:101E400000F026FCDDE903010094CDE90110002338
:101E500005A92846099A01F059FA064900280860A0
:101E600000D001200BB030BD49444C4500000000BB
:101E70008D1F00088C0000202DE9FF5F9846DDE9EA
:101E80000F540E9F119E91468A468346CDB104B3EE
:101E90005420014600902046FEF792FB0220256365
:101EA00084F851000020CDE90240CDE90076434698
:101EB0004A465146584600F0AAF804B02046BDE80C
:101EC000F09F102080F31188BFF34F8FBFF36F8F07
:101ED000FEE7102080F31188BFF34F8FBFF36F8FA1
:101EE000FEE710B5044690F8510058B101280CD017
:101EF00002280FD0102080F31188BFF34F8FBFF35B
:101F00006F8FFEE7206B00F031FC2046BDE81040EB
:101F100000F02CBC10BD000009480021026902B18C
:101F200001210268D26A0AB100207047054A12688E
:101F3000012AF9D80029F7D1816AC068081A7047C8
:101F400050000020B41600200E484FF48051420784
:101F500006D0C01D0B4920F00700411AC1F5805181
:101F6000094A00230144C2E900030839143A21F068
:101F7000070111604B600B600B1AC0E900139360FE
:101F8000536070470C02002030000020154D164FA2
:101F9000164C4FF0805600BFFFF7D8FE2868012886
:101FA00004D93E60BFF34F8FBFF36F8FFFF7B4FFCD
:101FB0000228F1D300F026FEA06AE168884207D229
:101FC000102080F31188BFF34F8FBFF36F8FFEE7B0
:101FD000FFF7A2FF022801D300F02CFC01F06AFBFE
:101FE000DAE70000B416002004ED00E05000002005
:101FF00010B5029C49B12260C4E90F0101212046BD
:1020000000F00AFF0020A06410BD2460F4E72DE971
:10201000F0479946DDE9097480466FF00303206BB1
:1020200003EB82021044089D20F00706700707D0DA
:10203000102080F31188BFF34F8FBFF36F8FFEE73F
:1020400061B1002023180A5C83F834200A5C12B1C5
:10205000401C1028F6D3002084F84300202D07D31D
:10206000102080F31188BFF34F8FBFF36F8FFEE70F
:10207000E562201D656400F02AFB04F1180000F001
:1020800026FB2461C5F120006462A0614A464146F6
:10209000304600F0CFFA2060002F00D03C60BDE851
:1020A000F087000030B51A4900E011460A68824204
:1020B000FBD3174B99420ED0164B994203D303F62C
:1020C000FF73994207D9102080F31188BFF34F8F17
:1020D000BFF36F8FFEE74B685C18844203D1406802
:1020E00018444860084643681C18944209D1084CBB
:1020F000143C2468A24209D052681A4442600A681B
:1021000012680260814200D0086030BD0460F9E7C7
:10211000300000200C02002070B5002441600B4DFF
:102120000061914206D8D11A8269914206D2011DFE
:10213000286907E09A4203D2994201D3012403E0BF
:10214000011DE86800F0C6FA204670BD900000202E
:1021500010B5044600F0D6FAA06B28B15FF0000479
:1021600000F0F0FA204610BD0124F9E7F1B5002691
:102170000098846C5CB1A16BE06B81420FD310209E
:1021800080F31188BFF34F8FBFF36F8FFEE71020EE
:1021900080F31188BFF34F8FBFF36F8FFEE7A16B02
:1021A000814212D294F94550002269462046FFF739
:1021B000FEFD0646681C0AD000F064FA854204D28F
:1021C0007F2D0FD06D1C84F845503046F8BD606AF5
:1021D0000028FAD004F1240001F0FCF90028F4D022
:1021E0000126F2E7102080F31188BFF34F8FBFF371
:1021F0006F8FFEE770B506460D480D46C068C06893
:10220000C468201D00F02CFA94F82400410705D57D
:102210002A463146204600F0B9F803E000F0FE00FF
:1022200084F824002046216ABDE870400847000079
:10223000900000207FB5002000900190374E029062
:1022400063E00098002860DB029C606910B1201DEB
:1022500000F006FA03A800F0BBF8054600980A282B
:1022600053D2DFE800F0520505282E460505282E3A
:1022700094F824002A4640F0010084F824000199D3
:10228000A069019B01442046FFF746FF40B394F844
:102290002400410707D50198A1692A460144204638
:1022A00000F074F803E000F0FE0084F82400216AD6
:1022B0002046884729E014F8240F00F0FE00207023
:1022C00023E094F8240040F0010084F824000198F1
:1022D000A06130B141192B461A462046FFF71CFF7A
:1022E00013E0102080F31188BFF34F8FBFF36F8F7F
:1022F000FEE794F82400810703D4204600F036FA64
:1023000003E000F0FE0084F82400002269463068F3
:1023100000F03EFE002894D17FBD00009000002018
:10232000F8B50D46064600F06DFC684600F050F822
:102330000446009810B101F0BDF9F8BD1148ADB1E7
:1023400001690968D9B10025311B2A46006800F0EF
:1023500007FB01F0AFF90028EFD10B494FF0805097
:102360000860BFF34F8FBFF36F8FF8BDA642EBD865
:1023700001F0A0F921463046FFF73CFFF8BD0125EA
:10238000E2E700009000002004ED00E070B5164682
:102390000C46054604E0A869296A04442846884793
:1023A000A8692346011932462846FFF7B5FE0028E2
:1023B000F1D170BD0548416B096821B1416BC96815
:1023C0000968816270474FF0FF31FAE75000002042
:1023D0002DE9F041064600F0B9FF0E4C0546A06815
:1023E000854214D24FF0FF3704E0C06839460068D8
:1023F000FFF700FFE06801680029F6D12169C4E910
:102400000310012030602846A560BDE8F08100205F
:10241000F8E700009000002008484068401C4FF09A
:10242000100080F3118804D0BFF34F8FBFF36F8F7C
:10243000FEE7BFF34F8FBFF36F8FFEE7380000203A
:10244000074CE068016841B1C0680021D0F8000085
:10245000FFF766FFFFF7EEFEF3E701210020F7E745
:10246000900000202DE9F041044600F04BF994F96A
:10247000455004F124060FE0A06C18B12046FFF788
:1024800075FE04E0606A48B1304601F0A3F808B177
:1024900000F0BCFA6D1E6DB2002DEDDC4FF0FF3682
:1024A00084F8456000F04EF900F02CF994F944509E
:1024B00004F1100709E0206948B1384601F08AF8B4
:1024C00008B100F0A3FA6D1E6DB2002DF3DC84F8A4
:1024D0004460BDE8F04100F035B900002DE9F0415D
:1024E00004004FF000060FD014F1090F0BD8083488
:1024F000600709D004F00700C0F10800C1438C4216
:1025000001D8044400E0002400F07CFB424D286820
:1025100008B9FFF719FD002C6EDD6F68BC426BD85F
:102520003D483E4B143001460968994203D303F6F7
:10253000FF72914215D9102080F31188BFF34F8F9D
:10254000BFF36F8FFEE7084661469C4501D3914279
:1025500007D9102080F31188BFF34F8FBFF36F8F1F
:10256000FEE7D1F804C0A44504D2D1F800C0BCF104
:10257000000FE8D1D5F800C061453DD006680836A7
:102580009E4201D3964207D9102080F31188BFF3F1
:102590004F8FBFF36F8FFEE70A6802604A68A2425E
:1025A00007D2102080F31188BFF34F8FBFF36F8FD6
:1025B000FEE7131B102B10D90A195FEA427C07D0E3
:1025C000102080F31188BFF34F8FBFF36F8FFEE7AA
:1025D00053604C600368136002604A68B81A686010
:1025E000AB68984200D2A86042F0004048600020EA
:1025F0000860E868401CE86001F05CF8700707D0EC
:10260000102080F31188BFF34F8FBFF36F8FFEE769
:102610003046BDE8F08100001C0000200C020020C4
:1026200003480068002802D0816C491C816470470F
:102630005000002010B5031F4FF080741C601B1F5A
:1026400021F001011960191F044B0B6014390A6055
:10265000091F6FF0020244380A6010BD19240008F7
:10266000D0E9013201699A60D0E901235A604A68D1
:10267000824201D182684A60002202610868401EDD
:1026800008607047014880687047000050000020D3
:10269000034B036003F15400086080201060704712
:1026A0000C120020034B036003F1540008608020EB
:1026B000106070476014002000F108014FF0FF32F5
:1026C000C0E90112C1600161002101607047002171
:1026D0000161704730B50B685A1C02D000F1080246
:1026E00002E0026904E02246546825689D42FAD956
:1026F00053684B6099608A60516008610168491CA9
:10270000016030BD102080F31188BFF34F8FBFF3FD
:102710006F8F0A494868401C486001280CD108485E
:10272000006810F0FF0F07D0102080F31188BFF36E
:102730004F8FBFF36F8FFEE7704700003800002017
:1027400004ED00E00849486828B1401E486001D106
:1027500080F311887047102080F31188BFF34F8FEA
:10276000BFF36F8FFEE700003800002070B500282F
:1027700040D0083820490446884203D301F6FF714F
:102780008C4207D9102080F31188BFF34F8FBFF31D
:102790006F8FFEE76168002907DB102080F3118846
:1027A000BFF34F8FBFF36F8FFEE722683AB110205F
:1027B00080F31188BFF34F8FBFF36F8FFEE721F0D7
:1027C00000416160082904D304F108000839FDF7CD
:1027D000D5FE00F017FA094D606869680844686022
:1027E0002046FFF75FFC2869401C2861BDE8704067
:1027F00000F060BF70BD00000C0200201C00002033
:102800000B480A496FF07F428160B2FBF1F1C16071
:102810005E2101614FF0E0200021016181610349E7
:10282000491E41610721016170470000409002008C
:10283000380000202DE9F041324D0446E86884421A
:1028400000D9044672B6BFF34F8FBFF36F8FFFF707
:102850006DF930B14FF0E02106220A61886918B1A4
:1028600003E062B6BDE8F081A868AB68661E03FBB2
:102870000600254E37687F0103D54FF0007737609B
:10288000C01A2B69984200D9C01A486100238B6195
:102890000E6946F001060E6124B1BFF34F8F30BFC1
:1028A000BFF36F8F62B6BFF34F8FBFF36F8F72B6F8
:1028B000BFF34F8FBFF36F8F0A610A69D2030DD543
:1028C0008A692E69801AAA68101A401EB04201D97E
:1028D000904200D9501E4861601E09E08869AA68CC
:1028E0005443241AB4FBF2F0461C5643321B4A618F
:1028F0008B6107220A61AA68521E4A6100F04EF9F4
:10290000AFE700003800002004ED00E010B5FDF74F
:10291000EBFC114910280ED300F1E02090F8F003F1
:102920000A78904207D2102080F31188BFF34F8FAE
:10293000BFF36F8FFEE709480068496900F4E06063
:10294000884207D9102080F31188BFF34F8FBFF35F
:102950006F8FFEE710BD0000380000200CED00E096
:1029600070B515460E460446FFF7CCFE94F94410A8
:102970000020491C01D184F8440094F94510491CF9
:1029800001D184F84500FFF7DDFEA06B28B92A4687
:10299000314604F1240000F057F82046BDE87040AD
:1029A000FFF760BD4FF0FF38104F114E0A2541462A
:1029B000786800F089FB0128F9D10D493222A1F194
:1029C0007400FDF7F7FE00240AA0315DFDF728FD35
:1029D000B4FBF5F005FB104010B907A0FDF720FD92
:1029E000641CA4B2322CEFD3E1E700000000002009
:1029F00018010020256320000D0A000002490A6A20
:102A00000260C96841607047500000200149012000
:102A1000086070476C00002010B50C4650B10949A1
:102A200009681831FFF756FE2046BDE81040012125
:102A3000FFF7B2B8102080F31188BFF34F8FBFF3B8
:102A40006F8FFEE750000020F0B40C46D0B1114962
:102A500043680D68EB619D680E6835620D689E687D
:102A6000183575600D6818359D60096888620168C1
:102A7000491C01600AB14FF0FF342046F0BC1146FA
:102A8000FFF78AB8102080F31188BFF34F8FBFF390
:102A90006F8FFEE75000002070B504004FD0A26C8D
:102AA000A2B1606C884200D30146E06A884246D0F9
:102AB000012A44D1224E326894420FD1102080F373
:102AC0001188BFF34F8FBFF36F8FFEE7102080F3A5
:102AD0001188BFF34F8FBFF36F8FFEE7E162A269EA
:102AE000002A02DBC1F12001A161164D00EB80003C
:102AF000616905EB8000814221D1201DFFF7B0FD07
:102B0000E06A3169884200D9306100EB800005EB52
:102B100080004068A0608168E1608268211D51608A
:102B20008160E06A00EB800005EB80006061E06A94
:102B300000EB800055F82010491C45F8201070BDAE
:102B400050000020B416002010B5FFF767F9124CB2
:102B5000012803D100F052FE012802D0401C12D0FF
:102B60000FE0102080F31188BFF34F8FBFF36F8FFA
:102B70004FF0FF30A062012060610020E06000F0B3
:102B80007DF8E06A10BD102080F31188BFF34F8FED
:102B9000BFF36F8FFEE700005000002070B5184CA7
:102BA0000546E068A16A2844884207D9102080F3CE
:102BB0001188BFF34F8FBFF36F8FFEE7A16A884282
:102BC0000AD1206B60B19DB1FFF79CFDA069401C4C
:102BD000A061FFF7B7FD6D1EE0682844E06070BD9E
:102BE000102080F31188BFF34F8FBFF36F8FFEE784
:102BF000102080F31188BFF34F8FBFF36F8FFEE774
:102C0000500000200248016B491C0163704700001E
:102C100050000020174A10B5116B02F11C0011B1D1
:102C20000121016010BD002101601169124801E01D
:102C3000C1B1491E01EB810350F82330002BF7D0BE
:102C400001EB810300EB830000F1080443685B683B
:102C50004360A34201D1C3684360D868106011612A
:102C6000106810BD102080F31188BFF34F8FBFF3A1
:102C70006F8FFEE750000020B41600203EB53A48A2
:102C800001683A4A914207D1102080F31188BFF3BE
:102C90004F8FBFF36F8FFEE700683449491E8842AB
:102CA00007D1102080F31188BFF34F8FBFF36F8FD0
:102CB000FEE72F480025019501788DF80810FF21C7
:102CC000017001788DF800109DF80010294C11F06A
:102CD000100121700CD09DF80010C943C90616D50B
:102CE000102080F31188BFF34F8FBFF36F8FFEE783
:102CF000102080F31188BFF34F8FBFF36F8FFEE773
:102D0000491C01919DF8001049008DF800109DF8B4
:102D1000001009060199F3D4082922D0C1F1070156
:102D20006161217D090201F4E06161619DF8081093
:102D300001700D482030016841F47F010160016895
:102D400041F07F410160FFF75BFD6560FDF794FA9C
:102D50000948016841F040410160FDF779FA00201F
:102D60003EBD6561DDE7000000ED00E071C20F418E
:102D700000E400E03800002034EF00E0F8B517462A
:102D80000E4605001CD04FF0FF30B0FBF5F0B0420E
:102D900016D305FB06F010F14D0F11D84C30FFF79C
:102DA0009DFB04000AD0002084F8460004F14C0288
:102DB0003B46314628460094FFF71AF92046F8BDF5
:102DC000102080F31188BFF34F8FBFF36F8FFEE7A2
:102DD00038B5049D1BB158B14AB189B908E010203B
:102DE00080F31188BFF34F8FBFF36F8FFEE739B1C8
:102DF000102080F31188BFF34F8FBFF36F8FFEE772
:102E00004C241C46012384F846302B460094FFF7DF
:102E1000EFF8204638BD00002DE9F0410F460400D0
:102E20004FF001062DD0E06B98B3B51EB5FBF0F165
:102E3000206C81423ED3FFF765FCD4E90F20216866
:102E400002FB0011A1600021A163216861600A46B4
:102E5000D4E90F01401E00FB01212046E16000F88B
:102E6000445F457004F11000A7B1FFF725FC04F1A1
:102E70002400FFF721FC00BFFFF764FC3046BDE8EB
:102E8000F081102080F31188BFF34F8FBFF36F8F55
:102E9000FEE70FE021690029EED000F09BFB00283F
:102EA000EAD008494FF080500860BFF34F8FBFF35E
:102EB0006F8FE1E7102080F31188BFF34F8FBFF3CE
:102EC0006F8FFEE704ED00E02DE9F0410F460400AE
:102ED00009D0206C78B1102080F31188BFF34F8F98
:102EE000BFF36F8FFEE7102080F31188BFF34F8F81
:102EF000BFF36F8FFEE7206848B9A06838B1102093
:102F000080F31188BFF34F8FBFF36F8FFEE7FFF79A
:102F1000FDFC1020EFF3118680F31188BFF34F8F73
:102F2000BFF36F8FA06BE16B81422CD994F94550B0
:102F3000401CA063681C0AD0FFF7A4FB854204D2A2
:102F40007F2D18D06D1C84F8455001201CE0A06C2A
:102F5000012518B12046FFF709F906E0606A00284C
:102F6000F3D004F1240000F035FB0028EDD0002F51
:102F7000EBD03D60E9E7102080F31188BFF34F8F5D
:102F8000BFF36F8FFEE7002086F31188BDE8F08164
:102F90002DE9F747002683B08A46040003D0BAF132
:102FA000000F08D011E0102080F31188BFF34F8F7D
:102FB000BFF36F8FFEE7206C38B1102080F31188CB
:102FC000BFF34F8FBFF36F8FFEE700F0B1F9DFF86B
:102FD000F4804FF000094FF0805748B9059838B198
:102FE000102080F31188BFF34F8FBFF36F8FFEE780
:102FF000FFF788FBA56BC5B151462046FEF7C4FE1E
:103000006D1EA563206950B104F1100000F0E2FAD2
:1030100028B1C8F80070BFF34F8FBFF36F8FFFF771
:1030200091FB012006B0BDE8F087059808B11EB1FC
:1030300006E0FFF787FB27E06846FFF7DFFC012685
:10304000FFF780FBFFF7DEFDFFF75CFB94F9440020
:10305000401C01D184F8449094F94500401C01D1F2
:1030600084F84590FFF76EFB05A9684600F0E0F88C
:10307000002820460AD0FFF7F5F900F01BFB204698
:10308000FFF766F80028B3D00020CBE7FFF760F821
:1030900090B104F124000599FFF7BEFC2046FFF72C
:1030A000E1F900F007FB0028A2D1C8F80070BFF3D7
:1030B0004F8FBFF36F8F9BE72046FFF7D3F900F0E8
:1030C000F9FA95E704ED00E02DE9F343002683B01B
:1030D0000400354609D0206C78B1102080F31188A7
:1030E000BFF34F8FBFF36F8FFEE7102080F311887F
:1030F000BFF34F8FBFF36F8FFEE700F019F9DFF8D2
:103100002C814FF000094FF0805748B9049838B12E
:10311000102080F31188BFF34F8FBFF36F8FFEE74E
:10312000FFF7F0FAA06BC8B1401EA063206810B989
:10313000FFF776FAA060206950B104F1100000F0AA
:1031400049FA28B1C8F80070BFF34F8FBFF36F8FF3
:10315000FFF7F8FA012005B0BDE8F083049808B144
:103160001EB106E0FFF7EEFA5EE06846FFF746FCA8
:103170000126FFF7E7FAFFF745FDFFF7C3FA94F9D9
:103180004400401C01D184F8449094F94500401C4F
:1031900001D184F84590FFF7D5FA04A9684600F0FC
:1031A00047F80028204612D0FFF75CF900F082FAB9
:1031B0002046FEF7CDFF0028B2D075B3FFF7A2FA84
:1031C000606A58B3206B0068C0F1200128E0FEF768
:1031D000BFFFE0B1206838B9FFF794FAA06800F0AB
:1031E000A9F90546FFF7AEFA04F124000499FFF7A8
:1031F00013FC2046FFF736F900F05CFA00288FD167
:10320000C8F80070BFF34F8FBFF36F8F88E7204679
:10321000FFF728F900F04EFA82E705E0FFE700210A
:10322000A068FFF739FC9DE7002094E704ED00E07B
:103230002DE9F0410C46050014D0DCB1FFF762FA2D
:10324000194EF2686B682068D11A471C1AD02F6893
:10325000D6F820C00026674516D0934214D8012521
:1032600026601BE0102080F31188BFF34F8FBFF35F
:103270006F8FFEE7102080F31188BFF34F8FBFF3ED
:103280006F8FFEE7002509E0884205D9401A2060CB
:103290002846FFF7B3FBF5E701252660FFF752FA52
:1032A0002846BDE8F0810000500000202DE9FF5FB6
:1032B0008346DDE90E878A46164699469000FFF759
:1032C0000DF905001FD05420FFF708F9040017D0AE
:1032D0005421FDF775F90020256384F85100CDE9EC
:1032E0000240CDE900874B46324651465846FEF72C
:1032F0008EFE2046FEF790FC012004B0BDE8F09F52
:103300002846FFF733FA4FF0FF30F6E7F0B585B007
:103310000AAF97E870000027049704AF8DE8F0002B
:10332000FEF7AAFD08B1FEF777FC049805B0F0BDE2
:103330000548416919B1006B18B1002070470120A0
:103340007047022070470000500000200148C0680C
:1033500070470000500000202DE9F0414A4C002643
:10336000206B28B1A069401CA0613046BDE8F08107
:10337000E5686D1CE56013D1606B006838B1102002
:1033800080F31188BFF34F8FBFF36F8FFEE7606B41
:10339000A16B6163A063206A401C2062FFF70AF8FA
:1033A000A16A3A488D420FD34FF0000E616B096855
:1033B00039B1616BC968C9684A68954214D2A26282
:1033C00002E04FF0FF31A1622168C96A01EB81017F
:1033D00050F82100012800D901262B481C30006834
:1033E0000028C2D00126C0E7D1E902274B699760C7
:1033F000D1E902277A605F680A1D974201D1CF6840
:103400005F60C1F814E01F687F1E1F60D1F828C0FC
:10341000BCF1000F15D0D1E907379F60D1E907371C
:103420007B60DCF8047001F118039F4202D10B6A43
:10343000CCF80430C1F828E0DCF800305B1ECCF892
:103440000030CB6A2769BB4200D9236103EB8303B9
:1034500000EB83035B688B609F68CF609F687A6036
:103460009A60CA6A02EB820200EB82034B6150F859
:1034700022305B1C40F82230C96A2268D26A91422D
:1034800094D9012692E7000050000020B4160020D5
:1034900070B504004FF0000146D0244D28688442E6
:1034A00007D0102080F31188BFF34F8FBFF36F8FC9
:1034B000FEE7A06C38B1401EA064636CE26A9A42D9
:1034C00032D040B130E0102080F31188BFF34F8F2D
:1034D000BFF36F8FFEE7201DFFF7C2F8606CE0625C
:1034E000C0F12000A061E06A2969884200D9286102
:1034F0000F4A00EB800002EB80004068A06081680A
:10350000E1608368211D59608160E06A00EB800002
:1035100002EB80006061E06A00EB800052F820104E
:10352000491C42F820100121084670BD50000020BF
:10353000B416002070B504004FF000003ED0234DBB
:10354000E16A2A68D26A914239D2A069002804DB74
:103550002868C06AC0F12000A0611D4E01EB810106
:10356000606906EB8101884224D1201DFFF778F8BD
:103570002868C06AE0622969884200D9286100EBA6
:10358000800006EB80004068A0608168E16082688E
:10359000211D51608160E06A00EB800006EB800035
:1035A0006061E06A00EB800056F82010491C46F884
:1035B000201002E02868C06AE062012070BD616CE2
:1035C0002A68D26A9142F8D370BD000050000020F2
:1035D000B416002070B5C068C4685CB3D4E9072194
:1035E000A06A9160D4E907125160426804F11801A1
:1035F0008A4201D1226A42600022A26203682A4DF7
:103600005B1E0360286BE8B1284A5068E06183685C
:103610002362836859608160A2621068401C106058
:10362000E06A2968C96A88423CD91F4A01201C32D5
:10363000106070BD102080F31188BFF34F8FBFF36F
:103640006F8FFEE7D4E9023061699860D4E9020324
:1036500058604B68201D834201D1E3684B60626172
:103660000A68521E0A60E16A2A69914200D92961FA
:103670000F4A01EB810102EB81014968A1608B686F
:10368000E3608B6858608860E06A00EB800002EBC2
:103690008001616152F82010491C42F82010FEF7A9
:1036A00089FEBDE7002070BD500000205C1900209D
:1036B000B41600202DE9F0470024A046FFF722F8B9
:1036C0004A4D0026286B28B1286B401E2863286BC2
:1036D00040B186E0102080F31188BFF34F8FBFF315
:1036E0006F8FFEE7A868414F414A4FF0000A4FF044
:1036F00001091C37E8BB74E0D068C468D4E907311D
:10370000A06A9960D4E907135960436804F118016D
:103710008B4201D1216A4160C4F828A00168534658
:10372000491E0160D4E902C16069CCF80810D4E9EF
:10373000021CCCF80410D0F804C0211D8C4503D124
:10374000D4F80CC0C0F804C0636103685B1E03605A
:10375000E06A2B69984200D92861264B00EB800073
:1037600003EB80004068A060D0F808C0C4F80CC02B
:1037700000E016E0D0F808C0CCF804108160E06AE0
:1037800000EB800003EB8001616153F82010491CBD
:1037900043F82010E06A2968C96A884201D947F8CD
:1037A000269010680028A7D10CB1FEF703FEAC6983
:1037B0004CB100BFFFF7D0FD08B147F82690641E5A
:1037C000F8D1C5F818A057F8260050B128684FF076
:1037D000010809494FF080500860BFF34F8FBFF3D5
:1037E0006F8FFEF7AFFF4046BDE8F0875000002026
:1037F0005C190020B416002004ED00E010B586B07E
:10380000FEF780FA114C2068B8B1002003900490B4
:1038100005AA04A903A8FEF745FFDDE903211F203F
:103820008DE8070000230AA10B48059AFFF76EFDFB
:10383000606010B106B0012010BD102080F3118827
:10384000BFF34F8FBFF36F8FFEE7000090000020A3
:10385000546D722053766300412400084FF040708D
:10386000E1EE100A704700000000000000000102B5
:103870000304060708090000000001020304000019
:10388000A038000800000020A4000000C4010008C7
:1038900044390008A400002044200000E001000892
:1038A0000000000000000000000000000100000017
:1038B00010000000000000000024F40000000000E0
:1038C00000000000000000000000000000000000F8
:1038D000000000000000000000000000AAAAAAAA40
:1038E00000000000000000000000000000000000D8
:1038F00000000000000000000000000000000000C8
:1039000000000000000000000000000000000000B7
:103910000000000000000000000000001F00000088
:103920000000000000000000000000000000000097
:103930000000000000000000000000000000000087
:043940000000000083
:040000050800018965
:00000001FF
