:020000040800F2
:10000000C01E0020610200082715000831130008F7
:1000100025150008BD0300081519000800000000A0
:10002000000000000000000000000000A101000826
:10003000BF03000800000000FD01000829150008AA
:100040007B0200087B0200087B0200087B0200089C
:100050007B0200087B0200087B0200087B0200088C
:100060007B0200087B0200087B0200087B0200087C
:100070007B0200087B0200087B0200087B0200086C
:100080007B0200087B0200087B0200087B0200085C
:100090007B0200087B0200087B0200087B0200084C
:1000A0007B0200087B0200087B0200087B0200083C
:1000B0007B0200087B0200087B0200087B0200082C
:1000C0007B0200087B0200087B0200087B0200081C
:1000D0007B020008091900087B0200087B02000867
:1000E0007B0200087B0200087B0200087B020008FC
:1000F0007B0200087B0200087B0200087B020008EC
:100100007B0200087B0200087B0200087B020008DB
:100110007B0200087B020008F91500087B0200083A
:100120007B0200087B0200087B0200087B020008BB
:100130007B0200087B0200087B0200087B020008AB
:100140007B0200087B0200087B0200087B0200089B
:100150007B0200087B0200087B0200087B0200088B
:100160007B0200087B0200087B0200087B0200087B
:100170007B0200087B0200087B02000800000000F0
:100180007B0200087B020008DFF810D000F004F9C1
:10019000004800471F1D0008AFF30080C01E00206C
:1001A0002C4B19680868B0E8F04F80F30988BFF35A
:1001B0006F8F4FF0000080F311887047000000003F
:1001C00008480068006880F308884FF0000080F35A
:1001D000148862B661B6BFF34F8FBFF36F8F00DF35
:1001E00000BF00BF08ED00E0DFF80C00016841F43B
:1001F00070010160704700BF88ED00E0EFF30980F7
:10020000BFF36F8F134B1A681EF0100F08BF20ED5D
:10021000108A20E9F04F106009B44FF0500080F3CD
:100220001188BFF34F8FBFF36F8F02F06FFD4FF058
:10023000000080F3118809BC19680868B0E8F04F25
:100240001EF0100F08BFB0EC108A80F30988BFF3CE
:100250006F8F704748000020EFF305807047000063
:100260000648804706480047FEE7FEE7FEE7FEE750
:10027000FEE7FEE7FEE7FEE7FEE7FEE7E91500081A
:10028000890100082DE9F05F0546002092469B4653
:1002900088460646814640241BE02846414647469C
:1002A000224600F069F853465A46C01A914110D3CD
:1002B00011461846224600F050F82D1A67EB010847
:1002C0004F4622460120002100F047F817EB0009B5
:1002D0004E41201EA4F10104DFDC484631462A4687
:1002E0004346BDE8F09F40EA01039B0703D009E0C5
:1002F00008C9121F08C0042AFAD203E011F8013B12
:1003000000F8013B521EF9D27047D2B201E000F86A
:10031000012B491EFBD270470022F6E710B51346A9
:100320000A4604461946FFF7F0FF204610BD30B5D7
:100330000B46014600202022012409E021FA02F5A3
:100340009D4205D303FA02F5491B04FA02F528443D
:10035000151EA2F10102F1DC30BD202A04DB203A97
:1003600000FA02F1002070479140C2F1200320FA08
:1003700003F3194390407047202A04DB203A21FA06
:1003800002F00021704721FA02F3D040C2F12002AE
:100390009140084319467047064C074D06E0E06857
:1003A00040F0010394E8070098471034AC42F6D3BC
:1003B000FFF7EEFEC4380008E4380008FEE7704797
:1003C00072B6FEE72DE9F0410446876D00F060F952
:1003D000064694F835000025022806D08020606586
:1003E00084F834500120BDE8F0812068016821F0D4
:1003F000160101602068416921F080014161206C93
:1004000008B9A06C20B12068016821F008010160E2
:100410002068016821F0010101600CE000F038F96A
:10042000801B052807D920206065032084F835004B
:1004300084F83450D7E720680068C007EED194F8FC
:100440005C103F208840B860012084F8350084F8B3
:1004500034500020C7E790F83510022903D08021DE
:10046000416501207047052180F83510006801685A
:1004700021F0010101600020704700002DE9F84FD4
:10048000DFF8BCA10022012503264FF00F090AF175
:10049000040BAAF1040E00BF0B6805FA02F4234016
:1004A000A34270D10F7907F00307012F01D0022F6B
:1004B00016D187684FEA420806FA08FC27EA0C07BB
:1004C000D1F80CC00CFA08FC4CEA070CC0F808C0C4
:1004D0004768A7430C79C4F3001494403C4344603C
:1004E0000C79E443A4070AD0C4684FEA420C06FA28
:1004F0000CF7BC438F6807FA0CF72743C7600C79E9
:1005000004F00304022C12D1D40800EB840CDCF8B4
:1005100020405707FF0E09FA07F824EA0804D1F82B
:10052000108008FA07F848EA0408CCF8208004682C
:100530004FEA420C06FA0CF7BC430F7907F00307A9
:1005400007FA0CF7274307604C6814F4403F70D05B
:100550003C4C276847F480472760246822F0030753
:1005600004F480440094384C07EB040CDCF8084891
:1005700097074FEA177809FA08F7BC43334FB84298
:1005800002D1002724E054E0314FB84201D10127C5
:100590001EE0304FB84201D1022719E02E4FB84279
:1005A00001D1032714E02D4FB84201D104270FE0F9
:1005B0002B4FB84201D105270AE02A4FB84201D19A
:1005C000062705E0284FB84201D1072700E0082799
:1005D00007FA08F72743CCF80878DAF800405746BE
:1005E000D1F804C09C435FEACC2C00D51C433C608E
:1005F000DBF800405F46D1F804C09C435FEA8C2CD6
:1006000000D51C433C60DEF800407746D1F804C0BA
:100610009C435FEA8C3C00D51C433C60084F083F7C
:100620003C68D1F804C09C435FEACC3C00D51C4335
:100630003C60521C102AFFF42FAFBDE8F88F000079
:10064000083C0140443802400030014000000240B4
:100650000004024000080240000C0240001002406A
:100660000014024000180240001C024000690840CB
:1006700000D001207047426921EA02030A4043EAA0
:100680000241816170470AB1816170470904FBE74B
:10069000014880687047000010000020024881680F
:1006A0000278114481607047100000200B4810B59B
:1006B000016841F400710160016841F480610160EA
:1006C000016841F480710160032000F09BF80F2065
:1006D00000F006F800F050F8002010BD003C024089
:1006E00030B505461F4887B00024016841F010016D
:1006F0000160006806A900F01000009001A800F059
:100700002DF90498A8B100F049F940001649174A9C
:10071000B0FBF1F11648491E026040F2E732C0E931
:100720000324C0E90114846100F040FB040003D0FD
:1007300015E000F033F9E9E70D4800F065FB04002F
:100740000DD1362000F030F8102D07D200222946B6
:10075000362000F037F80748056000E0012407B0B4
:10076000204630BD4038024040420F00001000409B
:10077000FC010020140000200A4808B5016841F47B
:1007800080410160006800F4804000900548001F2F
:10079000016841F080510160006800F080500090D5
:1007A00008BD000044380240002809DB00F01F02A9
:1007B000012191404009800000F1E020C0F80011C3
:1007C00070470000F0B40E4B1B680C46C3F30223C5
:1007D000C3F10705042D00D90425191D072901D2ED
:1007E000002300E0DB1E012606FA05F1491E214028
:1007F00099409E40761E16403143F0BC01F09CB8F3
:100800000CED00E0064900F0070208684FF6FF0310
:10081000184040EA0220034A104308607047000075
:100820000CED00E00000FA052DE9F0470E4605004A
:1008300065D0DFF81481D8F80000F7B200F00700A7
:10084000B04207D288F80070D8F8000000F0070026
:10085000B04254D128683D4C810712D5400703D5DA
:10086000206840F4E05020602878000703D5206815
:1008700040F4604020602068A96820F0F000084340
:1008800020602878C0072DD03049686808390128D1
:1008900012D0022813D0032811D009688907002933
:1008A0002DDA216821F0030101432160FFF7F0FEFA
:1008B000814641F2883A0EE009688903EFE709684A
:1008C0008901ECE7FFF7E4FEA0EB0901514502D9ED
:1008D0000320BDE8F0872068696800F00C00B0EBE9
:1008E000810FEFD1D8F80010404601F00701B14266
:1008F00007D90770006800F00700B04201D001205E
:10090000E7E72878400705D52068E96820F4E0503B
:10091000084320602878000706D52068296920F45C
:10092000604040EAC100206000F058F82168084AA1
:10093000C1F30311515CC8400649086006480068CD
:10094000FFF7CEFE0020C4E7003C0240083802401A
:10095000AC3800081C000020140000200F220260A8
:100960000C4A136803F003034360136803F0F003B9
:100970008360136803F4E053C36012684FF4E053DC
:1009800003EAD20202610448006800F00700086030
:100990007047000008380240003C02400448054906
:1009A00000680968044AC1F38221515CC84070475D
:1009B0001C00002008380240BC38000804480549E3
:1009C00000680968044AC1F34231515CC84070476D
:1009D0001C00002008380240BC380008154810B53B
:1009E000006810F00C02144813D04110042A0FD0F4
:1009F000082A0ED10F4C241F2268236802F03F0200
:100A00005B0207D52068C0F38810A0FB010106E057
:100A1000084610BD2168C1F38811A1FB0001002325
:100A2000FFF730FC2168C1F30141491C4900B0FBCC
:100A3000F1F010BD083802400024F4002DE9F84F11
:100A400004006ED02078DFF84C93C007A9F10405AC
:100A50004AD009F104000168C1F38101012908D0DD
:100A60000068C0F3810002280AD1D9F800004002D2
:100A700006D52868800337D560680028E1D033E0C8
:100A80006068B0F5803F10D0B0F5A02F286810D076
:100A900020F480302860286820F480202860606876
:100AA000A8B1FFF7F5FD06460DE0286840F4803058
:100AB000F4E740F480202860F7E700BFFFF7E8FD87
:100AC000801B642873D828688003F7D50CE0FFF7F3
:100AD000DFFD064605E000BFFFF7DAFD801B642856
:100AE000F0D828688003F7D42078DFF8AC8280073C
:100AF0004FF0000A3ED5A748001D016811F00C0F09
:100B000008D00068C0F3810002280BD1D9F800009A
:100B1000400207D42868800716D5E068012800D174
:100B200012E033E1E068B8B10120C8F80000FFF737
:100B3000AFFD064605E000BFFFF7AAFD801B0228B7
:100B4000C0D828688007F7D52868216920F0F80008
:100B500040EAC10028600DE0C8F800A0FFF798FD4A
:100B6000064604E0FFF794FD801B02281FD8286882
:100B70008007F7D42078000722D5864F874861691F
:100B8000703771B101210160FFF782FD064604E074
:100B9000FFF77EFD801B022809D838688007F7D54B
:100BA0000EE0C0F800A0FFF773FD064605E082E006
:100BB000FFF76EFD801B02287DD838688007F7D4C8
:100BC0002078400768D5DFF8CCB100270BF13C0B4B
:100BD000DBF80000C0000BD4DBF8001041F08051BE
:100BE000CBF80010DBF80000012700F080500090E7
:100BF0006B4E3068C00510D4306840F480703060AF
:100C0000FFF746FD009005E0FFF742FD0099401A0E
:100C1000022850D83068C005F6D55E4EA0686C3604
:100C200001280FD00528306810D020F00100306076
:100C3000306820F004003060A068B8B1FFF728FDEC
:100C400000900FE0306840F00100F4E740F004004D
:100C50003060F7E7FFF71CFD0099411A41F2883038
:100C6000814266D830688007F4D50EE0FFF710FDAA
:100C7000009007E0FFF70CFD0099411A41F288301F
:100C8000814256D830688007F4D42FB1DBF80010C9
:100C900021F08051CBF80010A069C8B33D49091D6F
:100CA0000968C1F3810102294AD00228504607D0C1
:100CB000C8F8600000E03CE0FFF7EAFC04463BE0D7
:100CC0004746C8F86000FFF7E3FC064605E000BFB2
:100CD000FFF7DEFC801B02282BD828688001F7D4A0
:100CE000D4E907010843A16A2E4A490802EB0141F1
:100CF000626A41EA8211084394F82C1040EA0161CB
:100D0000C9F8001001203866FFF7C2FC044606E06F
:100D10003EE000BFFFF7BCFC001B022809D8286892
:100D20008001F7D534E000BFFFF7B2FC001B0228BA
:100D300002D90320BDE8F88F28688001F4D427E0A9
:100D40000128F7D0D9F80000E26900F4800191424F
:100D50001CD1226A00F03F01914217D147F6C071C1
:100D6000626A0140B1EB821F10D1A26A4FF0FF33DB
:100D700000F4403103EB5202B1EB024F06D194F87C
:100D80002C1000F07060B0EB016F01D00120D1E7B2
:100D90000020CFE70438024000004742800E47425F
:100DA000007000400000FFFF7047704710B504005E
:100DB00003D094F83D0010B107E0012010BD0020E1
:100DC00084F83C00204600F01EF8022084F83D0024
:100DD000211D206800F016FC012084F8460084F8EC
:100DE0003E0084F83F0084F8400084F8410084F815
:100DF000420084F8430084F8440084F8450084F8F5
:100E00003D00002010BD704790F83D10012901D031
:100E100001207047022180F83D100168CA6842F045
:100E20000102CA6000681149884214D0B0F1804FB5
:100E300011D00F4988420ED00E4988420BD00E497E
:100E4000884208D00D49884205D00D49884202D019
:100E50000C49884204D1816801F00701062903D0BA
:100E6000016841F00101016000207047000001406D
:100E70000004004000080040000C00400004014055
:100E8000004001400018004070472DE9F041044641
:100E90000068C66805694FF00007A90713D5B107B8
:100EA00011D5F91E01610120207720688069800733
:100EB000204602D0FFF7E8FF04E000F07EF820466D
:100EC00000F07CF82777680716D5700714D52168DD
:100ED0006FF004000861022020772068806910F418
:100EE000407F204602D0FFF7CFFF04E000F065F816
:100EF000204600F063F82777280715D5300713D56B
:100F000021686FF008000861042020772068C0691C
:100F10008007204602D0FFF7B7FF04E000F04DF84D
:100F2000204600F04BF82777E80616D5F00614D5D2
:100F300021686FF010000861082020772068C069E0
:100F400010F4407F204602D0FFF79EFF04E000F03F
:100F500034F8204600F032F82777E80708D0F00789
:100F600006D021686FF001000861204600F028F8E3
:100F7000280608D5300606D521686FF08000086184
:100F80002046FFF711FF680608D5700606D52168D0
:100F90006FF040000861204600F01CF8A8060AD552
:100FA000B00608D521686FF0200008612046BDE832
:100FB000F041FFF7FABEBDE8F081704770470000CE
:100FC00000680349884201D1FFF768BB7047000001
:100FD000001000407047704770470000F8B5016886
:100FE00004460868CA684B6910F00F0F4FF00005FF
:100FF00059D003F0010602F49077374365D0C1075A
:1010000005D0D10503D5616C41F001016164410750
:1010100005D5D90703D0616C41F0020161648107F5
:1010200005D5D90703D0616C41F004016164010763
:1010300007D502F02001314303D0616C41F0080173
:101040006164616C00293AD0800604D5900602D50F
:10105000204600F072FB20684069616CC0F380108C
:10106000090700D460B3204600F040FB20684069C7
:10107000400621D52068143050E8001F21F04001BF
:1010800040E80012002AF5D1E06BA8B16E49016575
:10109000E06BFFF7E0F9002811D0E06B016D01B0C3
:1010A000BDE8F040084783060FD593060DD52046CE
:1010B000BDE8F84000F041BB2046FFF78DFFF8BDCA
:1010C0002046FFF789FF6564F8BD266B2023012EBB
:1010D0007DD1C6067BD5D60679D5086848680090CC
:1010E00048694FF00206400641D5E16B0868406848
:1010F0000004000CE8D0A28D8242E5D9E085C869E1
:10110000B0F5807F2DD020680C3050E8001F21F40E
:10111000807140E80012002AF5D12068143050E8B0
:10112000001F21F0010140E80012002AF5D12068DB
:10113000143050E8001F21F0400140E80012002A5E
:10114000F5D184F84230256320680C3050E8001F48
:1011500021F0100140E80012002AF5D1E06BFFF702
:1011600031F96663A08DE18D401A81B22AE0A08D2D
:10117000E18D401A81B2E08D0028A5D00029A3D0CE
:1011800022680C3252E8000F20F4907042E8000709
:10119000002FF5D12068143050E8002F22F0010212
:1011A00040E80027002FF5D184F8423025632068FD
:1011B0000C3050E8002F22F0100240E80023002BF2
:1011C000F5D166632046FFF706FFF8BDFFE7050689
:1011D0002BD5150629D594F841002128F5D1A06812
:1011E000B0F5805F01D12069B0B1206A411C216255
:1011F000216800784860E08C401E0004000CE08408
:10120000E3D12068C16821F08001C1602068C16815
:1012100041F04001C160D8E7206A0088C0F30800AF
:101220004860206A801C2062E5E74006CDD5500664
:10123000CBD5CA68204622F04002CA6084F841300B
:1012400000F075F8C1E70000DD16000870B5040075
:1012500004D094F84100002510B106E0012070BDD3
:1012600084F84050204600F023F8242084F8410000
:101270002068C16821F40051C160204600F0BEFA28
:101280002068016921F4904101612068416921F0E1
:101290002A0141612068C16841F40051C160656460
:1012A000202084F8410084F842006563002070BD6E
:1012B00010B586B0044614216846FFF72DF818498A
:1012C0002068884229D117480021026842F01002A4
:1012D0000260006800F0100005901248143802689F
:1012E00042F001020260006800F0010005904FF436
:1012F000C06000900220CDE9010103200390072087
:10130000049069460848FFF7B9F8002211462520E5
:10131000FFF758FA2520FFF747FA06B010BD000086
:1013200000100140443802400000024070477047FE
:10133000FEE770471CB5012300222549254800F02F
:10134000A3FC24480223002221492C3000F09CFCFD
:101350002048032300221E49583000F095FC1D4808
:10136000042300221A49843000F08EFC1A4A03211B
:10137000184800F0ABFB1748174A03212C3000F047
:10138000A5FB1448144A0321583000F09FFB114874
:10139000114A0321843000F099FB0E4800F092FCC2
:1013A0000C482C3000F08EFC0A48583000F08AFCC3
:1013B0000848843000F086FC00211D20CDE90001A2
:1013C0000B46802205A1094801F0AEFF1CBD0000BC
:1013D000F1130008A4000020331300086D756C742D
:1013E000695F627574746F6E00000000351D00083F
:1013F000014610B501200E4A01290CD002290CD05B
:1014000003290CD0042905D101210A48FFF72EF940
:1014100058B1002010BD102102E0082100E0042195
:10142000BDE810401046FFF721B9012010BD0000B3
:101430000010024000000240F0B587B01421684659
:10144000FEF76AFF25480024016841F010010160A1
:10145000016801F010010591016841F0040101608B
:10146000016801F004010591016841F0200101606B
:10147000016801F020010591016841F080010160DF
:10148000016801F080010591016841F001010160EE
:101490000068134F00F001004FF4C0660590002271
:1014A00031463846FFF7EFF81C2001258DE8310062
:1014B00069460C48FEF7E2FF0096CDE90154694603
:1014C00038460394FEF7DAFF02200095CDE901408B
:1014D00069460548FEF7D2FF07B0F0BD303802403C
:1014E0000014024000100240000002400C4810B5F9
:1014F0000A4901604FF4E1314160002181600C2212
:10150000C160C0E904128161C161FFF79FFE00283C
:1015100003D0BDE81040FEF753BF10BD00100140DE
:10152000B4010020FEE7FEE710B5502080F31188DB
:10153000BFF34F8FBFF36F8F01F096FF18B10449CF
:101540004FF080500860002080F3118810BD00002B
:1015500004ED00E030B593B030216846FEF7DCFEC4
:1015600014210CA8FEF7D8FE1D480025016841F0A3
:1015700080510160006800F08050119019480168A6
:1015800041F4804101600068022400F48040119021
:1015900001200090000401908001CDE9064008AAD6
:1015A0000420A82182E813000B906846FFF746FA52
:1015B00008B172B6FEE70CA90F2081E831004FF4A4
:1015C000A0500F904FF48050109005210CA8FFF709
:1015D0002BF9002801D072B6FEE713B030BD000031
:1015E00040380240007000400248016841F4700138
:1015F0000160704788ED00E00148FFF746BC00003D
:10160000FC010020F0B50268294C2A4D2A4E2B4FD0
:101610002B4B4FF0804CA04209D0604507D0A84228
:1016200005D0B04203D0B84201D0984204D122F094
:10163000700E4A6842EA0E02A0421BD0604519D0E3
:10164000A84217D0B04215D0B84213D0984211D05A
:101650001C4DA8420ED01C4DA8420BD01B4DA842D9
:1016600008D01B4DA84205D01A4DA84202D01A4DF1
:10167000A84203D122F44075CA682A434D6922F07A
:1016800080022A4302608A68C2620A688262A042BB
:1016900001D0984201D109690163012141610169C9
:1016A000C90703D0016921F001010161F0BD00000B
:1016B000000001400004004000080040000C004011
:1016C0000004014000400140004401400048014046
:1016D00000180040001C00400020004010B5806B46
:1016E0000021C185C184FFF777FC10BD01680C3172
:1016F00051E8002F22F4907241E80023002BF5D12D
:101700000168143151E8002F22F0010241E8002362
:10171000002BF5D1016B012909D101680C3151E889
:10172000002F22F0100241E80023002BF5D12021E8
:1017300080F8421000210163704708B590F842100C
:10174000222901D0022008BD82684FF480539A42BA
:1017500001D1016921B1816A9A421BD04AB10AE0E4
:101760000268816A5268C2F308020A80816A891C91
:1017700008E0026972B10268526802F07F020A70E2
:10178000816A491C8162C18D491E0904090CC18509
:1017900003D01BE002685268F1E70168CA6822F0D2
:1017A0002002CA600168CA6822F48072CA600168B7
:1017B0004A6922F001024A61202180F8421000218A
:1017C0004163026B012A03D0FFF7B0FD002008BD82
:1017D000016301680C3151E8002F22F0100241E84A
:1017E0000023002BF5D101680A68D20602D50A68E9
:1017F00049680091818DFFF7EEFBE7E770B504467D
:1018000000680169E26821F44051114301612169D6
:10181000A068E26908436169114308432168CA6806
:1018200049F20C639A430243CA6020684169A26985
:1018300021F440711143416131492068884202D04E
:101840003049884202D1FFF7B9F801E0FFF7A6F866
:10185000E2690023192164253226B2F5004F62683F
:1018600028D0A0FB0101930F9200FEF70BFD01466B
:10187000B0FBF5F06FF01802504301EB800006EB6F
:101880000010B0FBF5F000F0F002B1FBF5F002EB58
:101890000012B1FBF5F06FF01803584301EB800024
:1018A00006EB0010B0FBF5F000F00F0021681044CB
:1018B000886070BDA0FB010192185B41FEF7E2FC5D
:1018C0000146B0FBF5F00201B1FBF5F06FF0180333
:1018D000584301EB800006EBC000B0FBF5F000F0D0
:1018E000F80002EB4002B1FBF5F0584301EB800039
:1018F00006EBC000B0FBF5F000F00700D6E70000F3
:1019000000100140001401400148FFF767BB0000D0
:10191000B4010020FEE700000FB4054B10B503A989
:10192000044A029800F028F810BC5DF814FB00008F
:10193000051D0008A00000200907090E002804DB8F
:1019400000F1E02080F80014704700F00F0000F173
:10195000E02080F8141D704702E008C8121F08C17B
:10196000002AFAD170477047002001E001C1121F20
:10197000002AFBD1704700002DE9FF4F89B09B463C
:101980000446002506E025280BD05A460B999047BF
:10199000641C6D1C20780028F5D10DB02846BDE8E8
:1019A000F08F0027B8460122474900E0074314F8AA
:1019B000013F203B02FA03F00842F7D120782E289D
:1019C00019D114F8010F47F004072A280ED06FF040
:1019D0002F022078A0F1300109290CD808EB8801EA
:1019E00002EB410100EB0108641CF2E70A98641C59
:1019F00050F8048B0A9020780028CED0642808D0B4
:101A0000692806D075281ED05A460B9990476D1C40
:101A100058E00A994FF00A0901C90A91002802DA30
:101A200040422D2102E0390504D52B218DF82010EC
:101A3000012103E0F90704D02021F7E78A4608AE28
:101A40000DE00021FAE70A994FF00A0901C90A914D
:101A5000F7E74946FEF76BFC303106F8011D002818
:101A6000F7D1ADEB060000F12009780701D44FF063
:101A70000108C84502DDA8EB090000E0002080460F
:101A8000002706E008A85A46C05D0B9990476D1CD8
:101A90007F1C5745F6DB04E030205A460B999047EF
:101AA0006D1CB8F10001A8F10108F5DC05E016F89D
:101AB000010B5A460B9990476D1CB9F10001A9F131
:101AC0000109F4DC641C65E70928010000EB8100D2
:101AD000C260704770B504460079A1688847E17814
:101AE0004A0702D02288521C2280B0EBD11F0CD0B2
:101AF0004FF0005202EBB1114FEAB161C1F3C202E3
:101B0000E170032A04D360F3C71121F03800E070BC
:101B1000E078002500F00701062972D2DFE801F025
:101B2000031D3D7BB199C0F38011B1EBD01FA078AC
:101B300020F0F0000ED1A070E16809B1204688477E
:101B40002580A07820F00F00401CA070E0787CE099
:101B5000E07070BD8030A07070BDC0F38011B1EB3B
:101B6000D01F09D0A07820F0F0001030A0702169BB
:101B7000A9B3204688475FE02088C828ECD9A07820
:101B800020F0F0005030A070216A09B1204688474B
:101B9000E07820F00700401DDAE7C0F38011B1EBD8
:101BA000D01F1DD1A07820F0F000A070E16809B12D
:101BB00020468847A078C143090706D04FF08051DE
:101BC00001EB30104FEA3070A070616909B1204616
:101BD00088472580E07820F00700C01CB8E72BE09C
:101BE00020883C28B8D9A07800F00F01012902D044
:101BF000022907D044E020F0F0003030A070A16945
:101C000005E03EE020F0F0004030A070E16991B3C3
:101C10002046884734E0C0F38011B1EBD01F11D0CB
:101C2000A07820F0F0001030A070216909B12046A2
:101C3000884720883C2823D22580E07820F00700C0
:101C4000801C85E721883C2986D920F00700401CAC
:101C50007EE7C0F38011B1EBD01FA07820F0F00038
:101C60000AD16030A070616A00293FF475AF204648
:101C7000BDE87040084703E01030A0702169C6E756
:101C8000E07820F0070063E72DE9F0410F461E469B
:101C9000154604462C21FEF73FFBA07820F0F0000B
:101CA0008030A070A760E07845B120F0800000BFD0
:101CB00065F38610E0702671BDE8F08140F0800089
:101CC000F6E70000074A11680B4605E0814202D1A1
:101CD0004FF0FF307047896A0029F7D183621060A6
:101CE000002070479C000020054810B5046803E000
:101CF0002046FFF7EFFEA46A002CF9D110BD0000CA
:101D00009C00002003490A685206FCD5C2B24A6012
:101D10007047000000100140807800097047FEF70E
:101D2000C5FCFFF717FCFFF787FBFFF7DFFB00F0B1
:101D300031FDFEE708B501F091FB0090FFF7D4FFFD
:101D40000521684601F032FBF8E700002DE9F04775
:101D50001C4C0F460546E668D4F83490D4F8388019
:101D60002068001D00F01AFE681C15D1A7B11649A5
:101D700022684868906023688268DA602268836815
:101D8000121D5A602268121D826020684161086835
:101D9000401C0860BDE8F08720683544B5424560C6
:101DA000216805D24046BDE8F047091D00F044BE59
:101DB0004846091D00F040FEA06A8542EAD2A562AD
:101DC000E8E7000048000020BC1900202DE9F041A0
:101DD000054600F049FE344CA068401CA060206815
:101DE000324F10B1606930B32BE02560A068012844
:101DF00027D1002606EB860007EB800000F00EFEE0
:101E0000761C202EF6D32A4800F008FE284814300D
:101E100000F004FE2648283000F000FE24483C3044
:101E200000F0FCFD2248503000F0F8FD20486063CF
:101E30001430A06305E02068E96AC06A884200D8CF
:101E40002560606A401C6062E86A2169884200D9A6
:101E5000206100EB800007EB80004068A86081688B
:101E6000E9608268291D51608160E86A00EB8000AA
:101E700007EB8001696157F82010491C47F82010D2
:101E800000F012FE606900280CD02068E96AC06A80
:101E9000884207D207494FF080500860BFF34F8F48
:101EA000BFF36F8FBDE8F08148000020EC160020E2
:101EB0006C19002004ED00E038B500F0D5FD0E4CA3
:101EC0002068A8B90D4800F0A9FD0C48143000F0B6
:101ED000A5FD0A48E06014302061084B0020C43B97
:101EE000009003F14C020C210A2001F002F820605E
:101EF000BDE8384000F0D8BD88000020941A0020CA
:101F000070B50C4C0C4E11E000F0AEFDF068C568E9
:101F1000281D00F043FDA068401EA0606068401EC0
:101F2000606000F0C1FD284600F0B5F86068002848
:101F3000EAD170BD48000020A819002030B4026C1E
:101F40000B46002A0BD0C1681144C1608468A142CD
:101F500001D30168C16030BC1846FEF7C4B930BC7B
:101F600070472DE9F041856B174604460026026C48
:101F700082B1C7B1E068FEF7B6F9E168206C091AD2
:101F8000E1602268914202D2A168081AE060022F43
:101F900016D017E02068A8B9A06801F0F3FA064649
:101FA0000020A0600EE06068FEF79DF9216C60687B
:101FB00008446060A168884204D32068606001E042
:101FC00005B16D1E6D1CA5633046BDE8F0810000B3
:101FD00030B58BB0002005A910A2125C0A5412B1D2
:101FE000401C1028F8DB00240E4D039409AA04A914
:101FF00003A8049400F0FEFCDDE903010094CDE9A0
:102000000110002305A92846099A01F0BDF90649E7
:102010000028086000D001200BB030BD49444C4579
:102020000000000011210008840000202DE9FF5F5E
:102030009846DDE90F540E9F119E91468A468346CD
:10204000CDB104B35420014600902046FEF764F958
:102050000220256384F851000020CDE90240CDE93B
:10206000007643464A465146584600F074F804B09C
:102070002046BDE8F09F502080F31188BFF34F8FBA
:10208000BFF36F8FFEE7502080F31188BFF34F8FAF
:10209000BFF36F8FFEE710B5044690F8510058B1BA
:1020A00001280CD002280FD0502080F31188BFF3F4
:1020B0004F8FBFF36F8FFEE7206B00F009FD2046C6
:1020C000BDE8104000F004BD10BD00000E484FF404
:1020D0008051420706D0C01D0B4920F00700411A6D
:1020E000C1F58051094A00230144C2E900030839BF
:1020F000143A21F0070111604B600B600B1AC0E924
:1021000000139360536070474402002034000020A5
:10211000074C4FF08056074DFFF7F2FE206801286C
:10212000FAD92E60BFF34F8FBFF36F8FF4E7000033
:10213000EC16002004ED00E010B5029C49B12260CD
:10214000C4E90F010121204600F0F6FE0020A06442
:1021500010BD2460F4E72DE9F0479946DDE90974E4
:1021600080466FF00303206B03EB82021044089D4E
:1021700020F00706700707D0502080F31188BFF3C6
:102180004F8FBFF36F8FFEE761B1002023180A5C09
:1021900083F834200A5C12B1401C1028F6D30020CA
:1021A00084F84300202D07D3502080F31188BFF31B
:1021B0004F8FBFF36F8FFEE7E562201D656400F06F
:1021C00038FC04F1180000F034FC2461C5F1200053
:1021D0006462A0614A464146304600F0C5FA20607C
:1021E000002F00D03C60BDE8F087000030B51A49F0
:1021F00000E011460A688242FBD3174B99420ED089
:10220000164B994203D303F6FF73994207D9502026
:1022100080F31188BFF34F8FBFF36F8FFEE74B68DA
:102220005C18844203D140681844486008464368FB
:102230001C18944209D1084C143C2468A24209D0CD
:1022400052681A4442600A6812680260814200D0F3
:10225000086030BD0460F9E734000020440200202B
:1022600070B5002441600B4D0061914206D8D11A2F
:102270008269914206D2011D286907E09A4203D281
:10228000994201D3012403E0011DE86800F0D4FB6A
:10229000204670BD8800002010B5044600F0E4FB25
:1022A000A06B28B15FF0000400F0FEFB204610BDDB
:1022B0000124F9E7F1B500260098846C5CB1A16BAC
:1022C000E06B81420FD3502080F31188BFF34F8F12
:1022D000BFF36F8FFEE7502080F31188BFF34F8F5D
:1022E000BFF36F8FFEE7A16B814212D294F9455084
:1022F000002269462046FFF734FE0646681C0AD0D5
:1023000000F072FB854204D27F2D0FD06D1C84F843
:1023100045503046F8BD606A0028FAD004F1240028
:1023200001F082F90028F4D00126F2E7502080F372
:102330001188BFF34F8FBFF36F8FFEE770B506466E
:102340000D480D46C068C068C468201D00F026FB1B
:1023500094F82400410705D52A463146204600F06E
:10236000B9F803E000F0FE0084F824002046216A5A
:10237000BDE8704008470000880000207FB50020BD
:1023800000900190374E029063E00098002860DBD7
:10239000029C606910B1201D00F000FB03A800F052
:1023A000BBF8054600980A2853D2DFE800F0520532
:1023B00005282E460505282E94F824002A4640F0CC
:1023C000010084F824000199A069019B0144204682
:1023D000FFF746FF40B394F82400410707D5019862
:1023E000A1692A460144204600F074F803E000F099
:1023F000FE0084F82400216A2046884729E014F86A
:10240000240F00F0FE00207023E094F8240040F038
:10241000010084F824000198A06130B141192B46D5
:102420001A462046FFF71CFF13E0502080F3118866
:10243000BFF34F8FBFF36F8FFEE794F8240081073F
:1024400003D4204600F044FB03E000F0FE0084F8D3
:10245000240000226946306800F082FE002894D1F2
:102460007FBD000088000020F8B50D46064600F04C
:1024700045FC684600F050F80446009810B101F0A1
:1024800041F9F8BD1148ADB101690968D9B100251C
:10249000311B2A46006800F071FB01F033F9002877
:1024A000EFD10B494FF080500860BFF34F8FBFF35F
:1024B0006F8FF8BDA642EBD801F024F921463046D3
:1024C000FFF73CFFF8BD0125E2E70000880000208F
:1024D00004ED00E070B516460C46054604E0A86918
:1024E000296A044428468847A869234601193246C8
:1024F0002846FFF7B5FE0028F1D170BD0548416BB5
:10250000096821B1416BC9680968816270474FF061
:10251000FF31FAE7480000202DE9F041064600F0BF
:102520009DFF0E4C0546A068854214D24FF0FF3740
:1025300004E0C06839460068FFF700FFE068016802
:102540000029F6D12169C4E9031001203060284632
:10255000A560BDE8F0810020F8E7000088000020B9
:1025600008484068401C4FF0500080F3118804D0A8
:10257000BFF34F8FBFF36F8FFEE7BFF34F8FBFF3F4
:102580006F8FFEE73C000020074CE068016841B116
:10259000C0680021D0F80000FFF766FFFFF7EEFEED
:1025A000F3E701210020F7E7880000202DE9F04142
:1025B000044600F059FA94F9455004F124060FE05E
:1025C000A06C18B12046FFF775FE04E0606A48B1C0
:1025D000304601F029F808B100F020FB6D1E6DB205
:1025E000002DEDDC4FF0FF3684F8456000F05CFA1A
:1025F00000F03AFA94F9445004F1100709E0206918
:1026000048B1384601F010F808B100F007FB6D1E24
:102610006DB2002DF3DC84F84460BDE8F04100F0B9
:1026200043BA00002DE9F04104004FF000060FD03E
:1026300014F1090F0BD80834600709D004F0070023
:10264000C0F10800C1438C4201D8044400E00024DA
:1026500000F054FB424D286808B9FFF737FD002C05
:102660006EDD6F68BC426BD83D483E4B143001466E
:102670000968994203D303F6FF72914215D950209D
:1026800080F31188BFF34F8FBFF36F8FFEE70846CB
:1026900061469C4501D3914207D9502080F31188AF
:1026A000BFF34F8FBFF36F8FFEE7D1F804C0A4458F
:1026B00004D2D1F800C0BCF1000FE8D1D5F800C0B9
:1026C00061453DD0066808369E4201D3964207D93F
:1026D000502080F31188BFF34F8FBFF36F8FFEE759
:1026E0000A6802604A68A24207D2502080F311882B
:1026F000BFF34F8FBFF36F8FFEE7131B102B10D963
:102700000A195FEA427C07D0502080F31188BFF39A
:102710004F8FBFF36F8FFEE753604C600368136009
:1027200002604A68B81A6860AB68984200D2A86034
:1027300042F00040486000200860E868401CE86003
:1027400000F0E0FF700707D0502080F31188BFF33E
:102750004F8FBFF36F8FFEE73046BDE8F08100007A
:10276000200000204402002010B5031F4FF08074A9
:102770001C601B1F21F001011960191F044B0B6025
:1027800014390A60091F6FF0020244380A6010BD54
:10279000612500087CB51A4B002503F14C02042189
:1027A0000520009500F0A5FB164C00220421606076
:1027B000052000F074FBA0600326CDE9006500232E
:1027C000802211A1114800F0AFFDCDE90065002382
:1027D00080220FA10F4800F0A7FD0A2000F05BFB4C
:1027E0000146E060606800F045FBD4E9020100F0BA
:1027F00041FBFEF79FFDBDE87C4000F055BA0000AC
:10280000540100200000002071310000E52800087C
:10281000713200001928000808B51F4C1F4F4FF0F7
:10282000FF364FF47A783146E06800F035FD636892
:10283000984212D100226946184600F091FC0546E4
:102840004FF400713846FDF716FF606800F0B8F8E5
:1028500003462A4612A0009914E0A368984217D1B3
:1028600000226946184600F07BFC05464FF4806163
:102870003846FDF700FF606800F0A2F803462A46DC
:102880000EA00099FFF748F8404600F099F9CAE712
:1028900011A0FFF741F8C6E7000000200014024035
:1028A00071317265733A25642C70643A25642C6129
:1028B000766C623A25640D0A000000007132726580
:1028C000733A25642C70643A25642C61766C623A04
:1028D00025640D0A000000006669616C65640D0ADC
:1028E000000000001CB500201F4CADF80000ADF842
:1028F00004001E48FFF710FA2178884215D01B48C3
:10290000FFF70AFA207080B900231A46694660680A
:1029100000F06AFB0246BDF8001015A0FEF7FCFFB0
:10292000BDF80000401CADF800001648FFF7F4F9B0
:1029300061788842DDD01348FFF7EEF96070002817
:10294000D7D100231A4601A9A06800F04DFB02462A
:10295000BDF804100CA0FEF7DFFFBDF80400401C1A
:10296000ADF80400C5E7000000000020D000002002
:10297000713173656E643A25642C70643A25640D78
:102980000A000000FC000020713273656E643A2575
:10299000642C70643A25640D0A000000D0E901320D
:1029A00001699A60D0E901235A604A68824201D1E4
:1029B00082684A60002202610868401E0860704711
:1029C00010B5040008D000F04FF8D4E90E10441AF6
:1029D00000F06AF8204610BD502080F31188BFF344
:1029E0004F8FBFF36F8FFEE701488068704700008C
:1029F00048000020034B036003F15400086080206E
:102A00001060704744120020034B036003F1540030
:102A100008608020106070479814002000F10801C1
:102A20004FF0FF32C0E90112C16001610021016075
:102A3000704700210161704730B50B685A1C02D005
:102A400000F1080202E0026904E0224654682568A9
:102A50009D42FAD953684B6099608A605160086161
:102A60000168491C016030BD502080F31188BFF31C
:102A70004F8FBFF36F8F0A494868401C4860012898
:102A80000CD10848006810F0FF0F07D0502080F3E9
:102A90001188BFF34F8FBFF36F8FFEE770470000C1
:102AA0003C00002004ED00E00849486828B1401EC1
:102AB000486001D180F311887047502080F311885D
:102AC000BFF34F8FBFF36F8FFEE700003C00002085
:102AD00070B5002840D0083820490446884203D306
:102AE00001F6FF718C4207D9502080F31188BFF3A3
:102AF0004F8FBFF36F8FFEE76168002907DB50201F
:102B000080F31188BFF34F8FBFF36F8FFEE722680A
:102B10003AB1502080F31188BFF34F8FBFF36F8F0E
:102B2000FEE721F000416160082904D304F10800A8
:102B30000839FDF7F1FB00F0E1F8094D60686968BC
:102B4000084468602046FFF751FB2869401C286153
:102B5000BDE8704000F0D6BD70BD0000440200200A
:102B6000200000204FF0E020002101618161024936
:102B700041610721016170473F90020070B5154621
:102B80000E460446FFF770FF94F944100020491CDC
:102B900001D184F8440094F94510491C01D184F80E
:102BA0004500FFF781FFA06B28B92A46314604F1A2
:102BB000240000F051F82046BDE87040FFF7F6BC55
:102BC00010B5020015D000F099F80E48006B0128EE
:102BD00007D0502080F31188BFF34F8FBFF36F8F62
:102BE000FEE700211046FFF7B1F800F08BFD00284A
:102BF00007D105494FF080500860BFF34F8FBFF3F6
:102C00006F8F10BD4800002004ED00E002490A6A01
:102C10000260C968416070474800002001490120F6
:102C2000086070476400002010B50C4650B1094997
:102C300009681831FFF700FF2046BDE81040012168
:102C4000FFF784B8502080F31188BFF34F8FBFF394
:102C50006F8FFEE748000020F0B40C46D0B1114958
:102C600043680D68EB619D680E6835620D689E686B
:102C7000183575600D6818359D60096888620168AF
:102C8000491C01600AB14FF0FF342046F0BC1146E8
:102C9000FFF75CB8502080F31188BFF34F8FBFF36C
:102CA0006F8FFEE74800002010B5FFF791F9124C36
:102CB000012803D100F0CAFD012802D0401C12D027
:102CC0000FE0502080F31188BFF34F8FBFF36F8F59
:102CD0004FF0FF30A062012060610020E06000F052
:102CE00049F8E06A10BD502080F31188BFF34F8F80
:102CF000BFF36F8FFEE70000480000200248016B21
:102D0000491C01637047000048000020174A10B5B5
:102D1000116B02F11C0011B10121016010BD0021F5
:102D200001601169124801E0C1B1491E01EB810344
:102D300050F82330002BF7D001EB810300EB830028
:102D400000F1080443685B684360A34201D1C36893
:102D50004360D86810601161106810BD502080F386
:102D60001188BFF34F8FBFF36F8FFEE7480000203D
:102D7000EC1600203EB53A4801683A4A914207D124
:102D8000502080F31188BFF34F8FBFF36F8FFEE7A2
:102D900000683449491E884207D1502080F31188C9
:102DA000BFF34F8FBFF36F8FFEE72F4800250195CC
:102DB00001788DF80810FF21017001788DF800105E
:102DC0009DF80010294C11F0500121700CD09DF895
:102DD00000205021914316D0502080F31188BFF37A
:102DE0004F8FBFF36F8FFEE7502080F31188BFF342
:102DF0004F8FBFF36F8FFEE7491C01919DF80010C4
:102E000049008DF800109DF8001009060199F3D4CF
:102E1000082922D0C1F10701A160217A090201F439
:102E2000E061A1609DF8081001700D482030016834
:102E300041F47F010160016841F07F410160FFF7CB
:102E400091FE6560FDF7D0F90948016841F0404105
:102E50000160FDF7B5F900203EBDA560DDE700008B
:102E600000ED00E071C20F4100E400E03C000020F2
:102E700034EF00E070B50D460446FFF7F5FDA06C99
:102E800008B9A06B08B1002401E0A5640124FFF794
:102E90000BFE204670BD00220421AFF30080F8B580
:102EA00017460E4605001CD04FF0FF30B0FBF5F082
:102EB000B04216D305FB06F010F14D0F11D84C307F
:102EC000FFF7B0FB04000AD0002084F8460004F1AC
:102ED0004C023B46314628460094FFF72DF9204628
:102EE000F8BD502080F31188BFF34F8FBFF36F8F71
:102EF000FEE738B5049D1BB158B14AB189B908E065
:102F0000502080F31188BFF34F8FBFF36F8FFEE720
:102F100039B1502080F31188BFF34F8FBFF36F8F0B
:102F2000FEE74C241C46012384F846302B460094CF
:102F3000FFF702F9204638BD2DE9F0410F460400A5
:102F40004FF001062DD0E06B98B3B51EB5FBF0F144
:102F5000206C81423ED3FFF787FDD4E90F20216822
:102F600002FB0011A1600021A163216861600A4693
:102F7000D4E90F01401E00FB01212046E16000F86A
:102F8000445F457004F11000A7B1FFF747FD04F15D
:102F90002400FFF743FD00BFFFF786FD3046BDE884
:102FA000F081502080F31188BFF34F8FBFF36F8FF4
:102FB000FEE70FE021690029EED000F035FB002884
:102FC000EAD008494FF080500860BFF34F8FBFF33D
:102FD0006F8FE1E7502080F31188BFF34F8FBFF36D
:102FE0006F8FFEE704ED00E02DE9FF4782B01D463C
:102FF0008A464FF00008040003D0BAF1000F08D051
:1030000011E0502080F31188BFF34F8FBFF36F8F13
:10301000FEE7206C38B1502080F31188BFF34F8F4A
:10302000BFF36F8FFEE7022D0AD1E06B012807D0B6
:10303000502080F31188BFF34F8FBFF36F8FFEE7EF
:1030400000F0FEF9454F4FF000094FF0805648B9A7
:10305000049838B1502080F31188BFF34F8FBFF32D
:103060006F8FFEE7FFF700FDA06BE16B884207D38F
:10307000022D05D0049838B3B8F1000F27D02BE00B
:10308000D4F838802A4651462046FEF76AFFA16CE4
:1030900041B1022D02D1B8F1000F0FD12046FFF748
:1030A00009F905E0616A19B104F1240000F0BCFAE5
:1030B00020B13E60BFF34F8FBFF36F8FFFF7F4FC7B
:1030C000012006B0BDE8F087FFF7EEFC22E068467D
:1030D000FFF79CFD4FF00108FFF7E6FCFFF70EFE3F
:1030E000FFF7C2FC94F94400401C01D184F84490DD
:1030F00094F94500401C01D184F84590FFF7D4FCB9
:1031000004A9684600F0D2F830B12046FFF74EFA25
:1031100000F0F8FA0020D4E7FFF7A6FCA06BE16B03
:10312000884213D1FFF7C0FC04F110000499FFF7A7
:103130007BFD2046FFF73AFA00F0E4FA002891D12F
:103140003E60BFF34F8FBFF36F8F8BE7FFF7ACFC91
:103150002046FFF72BFA00F0D5FA83E704ED00E0F4
:103160002DE9F747002683B08A46040003D0BAF160
:10317000000F08D011E0502080F31188BFF34F8F6B
:10318000BFF36F8FFEE7206C38B1502080F31188B9
:10319000BFF34F8FBFF36F8FFEE700F051F9DFF8F9
:1031A000F4804FF000094FF0805748B9059838B1C6
:1031B000502080F31188BFF34F8FBFF36F8FFEE76E
:1031C000FFF752FCA56BC5B151462046FEF7B6FE8F
:1031D0006D1EA563206950B104F1100000F024FABF
:1031E00028B1C8F80070BFF34F8FBFF36F8FFFF7A0
:1031F0005BFC012006B0BDE8F087059808B11EB160
:1032000006E0FFF751FC27E06846FFF7FFFC0126C8
:10321000FFF74AFCFFF772FDFFF726FC94F9440024
:10322000401C01D184F8449094F94500401C01D120
:1032300084F84590FFF738FC05A9684600F036F899
:10324000002820460AD0FFF7B1F900F05BFA2046CB
:10325000FFF722F80028B3D00020CBE7FFF71CF8D7
:1032600090B104F124000599FFF7DEFC2046FFF73A
:103270009DF900F047FA0028A2D1C8F80070BFF30A
:103280004F8FBFF36F8F9BE72046FFF78FF900F05A
:1032900039FA95E704ED00E008B5002200920A46ED
:1032A0006946FFF75DFF009808BD00002DE9F04179
:1032B0000C46050014D0DCB1FFF7D6FB194EF268BE
:1032C0006B682068D11A471C1AD02F68D6F820C026
:1032D0000026674516D0934214D8012526601BE0CE
:1032E000502080F31188BFF34F8FBFF36F8FFEE73D
:1032F000502080F31188BFF34F8FBFF36F8FFEE72D
:10330000002509E0884205D9401A20602846FFF7C9
:103310007DFCF5E701252660FFF7C6FB2846BDE8E2
:10332000F0810000480000202DE9FF5F8346DDE9C1
:103330000E878A46164699469000FFF773F90500F6
:103340001FD05420FFF76EF9040017D05421FCF76A
:10335000E3FF0020256384F85100CDE90240CDE968
:1033600000874B46324651465846FEF7F4FE20464B
:10337000FEF72CFD012004B0BDE8F09F2846FFF7C2
:10338000A7FB4FF0FF30F6E7F0B585B00AAF97E83E
:1033900070000027049704AF8DE8F000FEF746FEAA
:1033A00008B1FEF713FD049805B0F0BD70B50E46E8
:1033B00005004FF000040FD0B6B1FFF79FFC1E4888
:1033C000C268006B012817D0502080F31188BFF32A
:1033D0004F8FBFF36F8FFEE7502080F31188BFF34C
:1033E0004F8FBFF36F8FFEE7502080F31188BFF33C
:1033F0004F8FBFF36F8FFEE72B689919934204D963
:103400008B420BD9914202D808E08B42FAD9881A34
:10341000296001240021FEF799FC00E0296000F0FA
:1034200071F938B905494FF080500860BFF34F8FEC
:10343000BFF36F8F204670BD4800002004ED00E010
:103440000548416919B1006B18B10020704701208F
:103450007047022070470000480000200148C06803
:1034600070470000480000202DE9F041434C002641
:10347000206B28B1A069401CA0613046BDE8F081F6
:10348000E5686D1CE56013D1606B006838B15020B1
:1034900080F31188BFF34F8FBFF36F8FFEE7606B30
:1034A000A16B6163A063206A401C2062FFF726F8CD
:1034B000A06A85420AD30023606B006868B1606B24
:1034C000C068C168486885420AD2A0622B481C3097
:1034D00000680028D1D00126CFE74FF0FF30F4E795
:1034E000D1E9022748699760D1E902277A604768E5
:1034F0000A1D974201D1CF6847604B6107687F1E64
:103500000760886A98B1D1E9077CC7F808C0D1E99B
:10351000077CCCF80470D0F804C001F11807BC4552
:1035200001D10F6A47608B6207687F1E0760C86A17
:103530002769B84200D92061114F00EB800007EBEA
:10354000800040688860D0F808C0C1F80CC0D0F88E
:1035500008C0CCF804208260C86A00EB800007EB4A
:1035600080024A6157F82020521C47F82020C96A7F
:103570002068C06A81429FD901269DE7480000204B
:10358000EC16002070B504004FF0000146D0244D29
:103590002868844207D0502080F31188BFF34F8FF2
:1035A000BFF36F8FFEE7A06C38B1401EA064636C60
:1035B000E26A9A4232D040B130E0502080F3118864
:1035C000BFF34F8FBFF36F8FFEE7201DFFF7E6F9C4
:1035D000606CE062C0F12000A061E06A2969884265
:1035E00000D928610F4A00EB800002EB80004068A0
:1035F000A0608168E1608368211D59608160E06A94
:1036000000EB800002EB80006061E06A00EB80006C
:1036100052F82010491C42F820100121084670BDC4
:1036200048000020EC16002030B5C068C06858B3D0
:10363000D0E90731826A9960D0E90713596053686D
:1036400000F118018B4201D1036A536000248462A7
:1036500013685B1E1360284A136BEBB1274C636839
:10366000C3619D6805629D68696099608462216894
:10367000491C2160C06A1168C96A88423AD91E4A49
:1036800001201C32106030BD502080F31188BFF340
:103690004F8FBFF36F8FFEE7D0E902534169AB60F4
:1036A000D0E902356B604D68031D9D4201D1C568AC
:1036B0004D6044610C68641E0C60C16A1469A142CB
:1036C00000D911610E4C01EB810104EB81014968C5
:1036D00081608D68C5608D686B608B60C16A01EB2D
:1036E000810104EB8103436154F821305B1C44F8F1
:1036F0002130BFE7002030BD480000209419002091
:10370000EC1600202DE9F0470024A046FFF7ACF9A5
:103710004A4D0026286B28B1286B401E2863286B71
:1037200040B186E0502080F31188BFF34F8FBFF384
:103730006F8FFEE7A868414F414A4FF0000A4FF0F3
:1037400001091C37E8BB74E0D068C468D4E90731CC
:10375000A06A9960D4E907135960436804F118011D
:103760008B4201D1216A4160C4F828A00168534608
:10377000491E0160D4E902C16069CCF80810D4E99F
:10378000021CCCF80410D0F804C0211D8C4503D1D4
:10379000D4F80CC0C0F804C0636103685B1E03600A
:1037A000E06A2B69984200D92861264B00EB800023
:1037B00003EB80004068A060D0F808C0C4F80CC0DB
:1037C00000E016E0D0F808C0CCF804108160E06A90
:1037D00000EB800003EB8001616153F82010491C6D
:1037E00043F82010E06A2968C96A884201D947F87D
:1037F000269010680028A7D10CB1FEF77FFEAC69B7
:103800004CB100BFFFF730FE08B147F82690641EA8
:10381000F8D1C5F818A057F8260050B128684FF025
:10382000010809494FF080500860BFF34F8FBFF384
:103830006F8FFFF739F94046BDE8F0874800002058
:1038400094190020EC16002004ED00E010B586B0BD
:10385000FEF732FB114C2068B8B1002003900490B1
:1038600005AA04A903A8FFF7CFF8DDE903211F206B
:103870008DE8070000230AA10B48059AFFF784FD95
:10388000606010B106B0012010BD502080F3118897
:10389000BFF34F8FBFF36F8FFEE70000880000205B
:1038A000546D7220537663008925000800000000E3
:1038B00000000000010203040607080900000000E0
:1038C00001020304E438000800000020A400000006
:1038D0005819000888390008A40000201C1E0000A8
:1038E000681900080808000000000000000000003F
:1038F00000000000010000001000000000000000B7
:103900000024F4000000000000000000000000009F
:1039100000000000000000000000000000000000A7
:1039200000000000AAAAAAAA0000000000000000EF
:103930000000000000000000000000000000000087
:103940000000000000000000000000000000000077
:1039500000000000000000001F0000000000000048
:103960000000000000000000000000000000000057
:103970000000000000000000000000000000000047
:0839800000000000000000003F
:040000050800018965
:00000001FF
